:020000040800F2
:1000000000500020492A00089D2A0008AD2A000857
:10001000BD2A0008C12A0008C52A00080000000007
:10002000000000000000000000000000C92A0008D5
:10003000CD2A000800000000D12A0008D52A0008B7
:10004000992A0008992A0008992A0008992A000884
:10005000992A0008992A0008992A0008992A000874
:10006000992A0008992A0008992A0008992A000864
:10007000992A0008992A0008992A0008992A000854
:10008000992A0008992A0008992A0008992A000844
:10009000992A0008992A0008992A0008992A000834
:1000A000992A0008992A0008992A0008992A000824
:1000B000112E0008992A0008992A0008992A000898
:1000C000992A0008992A0008992A0008992A000804
:1000D000992A00088D310008992A00082532000865
:1000E000992A0008992A0008992A000800000000AF
:1000F0000000000000000000000000000000000000
:0C01000000000000000000005FF808F1A3
:10010C0010B5054C237833B9044B13B10448AFF345
:10011C0000800123237010BD000A002000000000A5
:10012C00A45A000808B5034B1BB103490348AFF3AD
:10013C00008008BD00000000040A0020A45A00083A
:10014C00034613F8012B002AFBD1181A013870470B
:10015C00C378FBB1154BDB68DB43C3F30223C3F15C
:10016C0004010F22DA40437803FA01F1837813403B
:10017C000B431B010278DBB20D490A4482F80033B1
:10018C000378580903F01F03012202FA03F341F824
:10019C002030704703785A0903F01F03012101FA3C
:1001AC0003F32032024941F82230704700ED00E0A1
:1001BC0000E100E008B5012000F024F9002000F077
:1001CC0021F908BD82B000230193044B0193019BDC
:1001DC0018440190019B196002B07047006C0040FC
:1001EC0082B000230193054B0193019B18440190AD
:1001FC00019B188880B202B0704700BF006C0040B1
:10020C00F0B4CB7803F00F02154613F0100F01D0A9
:10021C008D7815430B78E3B10668002316E00122B4
:10022C009A400C8832EA04040FD19C000F27A74097
:10023C0026EA070605FA04F42643CC78282C01D1CB
:10024C00426102E0482C00D102610133072BE6D950
:10025C0006600B88FF2B1ED94668002318E003F1BB
:10026C0008040122A2400C8832EA04040FD19C003D
:10027C000F27A74026EA070605FA04F42643CC7894
:10028C00282C00D14261CC78482C00D1026101337A
:10029C00072BE4D94660F0BC704700BF8368194255
:1002AC0001D0012070470020704700BF01617047EA
:1002BC00416170470AB1016170474161704700BFED
:1002CC00014B1860704700BF20000E42084B002203
:1002DC001A701A70012802D0042804D07047012229
:1002EC00034B1A7070470522014B1A70704700BF00
:1002FC0020100240024A136A18431062704700BF74
:10030C0000100240014B1860704700BF3C04424291
:10031C0010B4294B5B6803F00C03042B05D0082B9D
:10032C0006D013BB254B036021E0244B03601EE079
:10033C00214A53685268C3F38343023312F4803F5B
:10034C0004D11F4A02FB03F3036010E01A4A5268FF
:10035C0012F4003F04D01A4A02FB03F3036006E0D8
:10036C00164A02FB03F3036001E0144B03601249CD
:10037C004B68C3F30313134CE35CDAB20368D3404A
:10038C0043604A68C2F30222A25CD2B223FA02F2A0
:10039C0082604A68C2F3C222A25CD2B2D340C3606C
:1003AC004A68C2F3813208498A5CD2B2B3FBF2F3D9
:1003BC00036110BC704700BF0010024000127A00AD
:1003CC0000093D00040000200000002021B1054B75
:1003DC009A69104398617047024A936923EA0000B6
:1003EC00906170470010024021B1054BDA6910434F
:1003FC00D8617047024AD36923EA0000D061704784
:10040C0000100240014B1860704700BF400442428C
:10041C004309012B02D10A4B1B6806E0022B02D1C7
:10042C00074B1B6A01E0064B5B6A00F01F0023FAC6
:10043C0000F010F0010F01D0012070470020704730
:10044C0000100240024A536A43F0807353627047B3
:10045C000010024029B1064A13889BB21843108041
:10046C007047034A1388C04380B21840108070470D
:10047C0000280040034A93889BB243F010039380FA
:10048C00704700BF00280040034A93889BB223F0BA
:10049C0010039BB293807047002800400849088BDA
:1004AC0082B28B8B9BB2088B80B2824204D08B8B36
:1004BC009BB243EA0040704743EA0240704700BFDA
:1004CC000028004010B50446FFF7D4FF220C034B64
:1004DC001A83A4B29C83FFF7D7FF10BD00280040FD
:1004EC0010B50446FFF7C6FFC4F30342034B1A8151
:1004FC00A4B29C81FFF7C8FF10BD00BF00280040CC
:10050C00034B9B8803F020039BB2002BF8D0704761
:10051C0000280040074A93889BB223F008039BB243
:10052C009380044B9B8803F008039BB2002BF8D0FC
:10053C00704700BF002800402DE9F041038803F408
:10054C0041570D884E888C88B1F806800A89B1F81D
:10055C000AC08B89B1F80EE03543254348EA0504FF
:10056C0014434CEA04021A434EEA02033B43038051
:10057C00838B9BB223F400639BB283830B8A03822D
:10058C00BDE8F08129B103889BB243F0400303809E
:10059C00704703889BB223F040039BB203807047E3
:1005AC0003889BB2214A904212D002F5006290421D
:1005BC000ED0B0F1804F0BD0A2F59832904207D0FC
:1005CC0002F58062904203D002F58062904203D122
:1005DC0023F070034A881343154A904208D002F561
:1005EC008062904204D023F440739BB2CA881343B8
:1005FC0003808B8883850B8803850C4B98420FD026
:10060C0003F5006398420BD003F54063984207D082
:10061C0003F58063984203D003F58063984201D1BF
:10062C000B7A038601238382704700BF002C0140A4
:10063C000010004029B103889BB243F001030380F2
:10064C00704703889BB223F001039BB20380704771
:10065C0022B183899BB21943818170478389C94335
:10066C0089B2194081817047028A83890B401142FB
:10067C0002D01BB900207047002070470120704742
:10068C00C94389B20182704730B587B004460D4624
:10069C00038A9BB2CA8823F4405313430382838991
:1006AC009BB28A88098968890A43024323F4B053B0
:1006BC0023F00C031343A381A38A9BB2AA8923F4CE
:1006CC0040731343A38201A8FFF722FE1E4B9C42EA
:1006DC0001D1049A00E0039AA38913F4004F08D0C7
:1006EC0002EB820202EB820229684900B2FBF1F1B3
:1006FC0007E002EB820202EB820229688900B2FB5E
:10070C00F1F1124BA3FB01235B091B011A096420B5
:10071C0000FB1212A18911F4004F08D0D200323222
:10072C000A49A1FB0212C2F342121A4307E012015A
:10073C0032320649A1FB0212C2F343121A4392B29F
:10074C00228107B030BD00BF003801401F85EB513E
:10075C0029B183899BB243F4005383817047838909
:10076C009BB223F400539BB283817047C1F3080101
:10077C00818070478088C0F3080070470388194255
:10078C0001D0012070470020704700BF10F0030F0C
:10079C0014D10D4BA3FB00235B09642202FB130352
:1007AC009BB26BB9084BA3FB0023DB094FF4C87257
:1007BC0002FB130080B228B901207047002070475B
:1007CC0001207047002070471F85EB51F8B5FFF7EB
:1007DC0065FE00F56157354CA4FB0734240C344BF3
:1007EC001B889C4234D0324B1C8040F2B2760EE017
:1007FC003046FFF7CBFF012805D1B4F5B77F09D3FD
:10080C00A4F5B77401E0A4F26D140136B6B2B4F5D8
:10081C00B67FEDD8274B1E80002511E0012D08D1A5
:10082C003046FFF7B3FF012803D11C2C0AD91D3C1D
:10083C0004E0214B5B5D9C4204D3E41A0135ADB25C
:10084C001B2CEBD801351D4B1D7001341C4B1C703F
:10085C00164BA3FB07231B0C1A4A02FB13731A4AF1
:10086C00A2FB0312D20AD0B2184908704FF461618E
:10087C0001FB1231164BA3FB01235B09DCB2154AB9
:10088C001470C3EB03139A008A1AD3B2124A137072
:10089C00124A137054709070094B1B78D370074B2D
:1008AC001B785371034B1B88D380F8BD07452EC2B0
:1008BC001E0A002016000020DC5A00081800002038
:1008CC001400002080510100C5B3A2911C0A002025
:1008DC0089888888210A0020200A0020880B0020A3
:1008EC002DE9F04782468946174698469DF82060C8
:1008FC0040F63303984200D99A4640F2B1739A45B8
:10090C0001D840F2B27A002440F2B27511E02846C8
:10091C00FFF73CFF012804D104F1F17404F5054400
:10092C0005E004F1F07404F5993404F5C074013554
:10093C00ADB2AA45EBD809F1FF31C9B2002306E0EC
:10094C00124AD25C124800FB024401339BB28AB2B9
:10095C009342F5D30F4B1888FFF718FF012803D1EA
:10096C0004F5A83404F5C074013F094800FB0744A2
:10097C004FF4616303FB0844C6EB0616B300234433
:10098C009DF824001844BDE8F08700BFDC5A00082D
:10099C00805101001600002038B50E4C0E4DE17848
:1009AC00284602F0C1FD6179284602F0BDFDE188C0
:1009BC000A4802F0B9FD0A4DA178284602F0B4FDB0
:1009CC006178284602F0B0FD2178064802F0ACFDB3
:1009DC0038BD00BF880B0020E85A0008EC5A00080C
:1009EC00F05A0008F45A00080C4B98810B4B1B89E9
:1009FC0003F002039BB2002BF8D0084B1B8913F0B9
:100A0C00010FFAD0054B1B8903F080039BB2002B1E
:100A1C00F8D1024B9889C0B2704700BF003001403A
:100A2C00F8B506460C4615461F4601210B48FFF744
:100A3C003FFC04F01F003043FFF7D6FF002406E014
:100A4C006E1C0020FFF7D0FF287001343546BC42E5
:100A5C00F6DB01210148FFF729FCF8BD000C014031
:100A6C00F8B506460C4615461F4601210B48FFF704
:100A7C001FFC04F01F003043FFF7B6FF002405E015
:100A8C006E1C2878FFF7B0FF01343546BC42F7DB0B
:100A9C0001210248FFF70AFCF8BD00BF000C014021
:100AAC0038B505460C4601210548FFF701FC2846E0
:100ABC00FFF79AFF1CB901210148FFF7F7FB38BD7E
:100ACC00000C014008B500F0E0000F4B1B78984279
:100ADC0019D0E02817D00C4B18704009032812D8F5
:100AEC00DFE800F002060A0EC020FFF7D9FF08BDB0
:100AFC00C220FFF7D5FF08BDC420FFF7D1FF08BD0A
:100B0C00C620FFF7CDFF08BD240A002010B582B027
:100B1C0004460121FFF7D6FF01230DF1060204F074
:100B2C001F010020FFF77CFF9DF8060002B010BDEE
:100B3C0010B582B004460121FFF7C4FF02230DF16A
:100B4C00060204F01F010020FFF76AFFBDF8060043
:100B5C0002B010BD30B583B0054602AC04F8011DDF
:100B6C000121FFF7AFFF0123224629468020FFF722
:100B7C0077FF03B030BD00BF70B582B004460E469F
:100B8C000121FFF79FFF02AD05F8016D01232A46F5
:100B9C0004F01F014020FFF763FF360A8DF8076051
:100BAC00611C01232A4601F01F014020FFF758FF6A
:100BBC0002B070BD30B583B0054602AC04F8011D1F
:100BCC000121FFF77FFF0123224629464020FFF732
:100BDC0047FF03B030BD00BF70B506460C46154646
:100BEC0001210948FFF764FB3046FFF7FDFEE0B238
:100BFC00FFF7FAFE200AFFF7F7FE1DB901210248A4
:100C0C00FFF754FB70BD00BF000C014038B5044623
:100C1C000D4601210A48FFF74BFB2C20FFF7E4FEA1
:100C2C0006E0013CA4B20020FFF7DEFE05F8010B44
:100C3C00002CF6D101210248FFF738FB38BD00BF6C
:100C4C00000C014070B505460E4601210A48FFF71D
:100C5C002FFB2A20FFF7C8FE04E016F8010BFFF764
:100C6C00C3FE25466B1E9CB2002DF6D10121024815
:100C7C00FFF71CFB70BD00BF000C014010B5044613
:100C8C0041F234211620FFF777FF04E041F23421C2
:100C9C001620FFF771FF1620FFF74AFF41F23423AD
:100CAC009842F3D1FB20FFF731FF10F4805FF9D1AC
:100CBC000021CA20FFF7F4FE192002F097F8162045
:100CCC00FFF736FF002846D140F2091002F08EF8EB
:100CDC004FF49A51204B19800420FFF74DFF45F635
:100CEC00FF710620FFF748FF45F6FF711620FFF74E
:100CFC0043FF45F6FF711820FFF73EFF59213420C2
:100D0C00FFF758FFF0214220FFF724FF40F2DC519F
:100D1C004A20FFF731FF21786420FFF74BFF617801
:100D2C006520FFF747FFA1786220FFF743FFE178CA
:100D3C006320FFF73FFF21796020FFF73BFF6179CC
:100D4C006120FFF737FF40217220FFF733FF0021AE
:100D5C00E820FFF7A5FE10BD220A002070B582B076
:100D6C0006460D46FC20FFF7D1FE10F0400F41D097
:100D7C00234C002221886420FFF72EFF69460220B5
:100D8C00FFF744FF9DF801209DF8003043EA022351
:100D9C00238069460620FFF739FF9DF801409DF836
:100DAC00003043EA0424043C9DF90230002B00DBA4
:100DBC000024B44200D900242946A0B2FFF726FF34
:100DCC000F4B1B889D1EADB2B3F59A5F01D145F652
:100DDC00FC750121FF20FFF7EDFEE9B20620FFF7BD
:100DEC00E9FE290A0720FFF7E5FE701E844203D9AD
:100DFC00002002E0002000E0204602B070BD00BFE1
:100E0C00220A002038B504460D46002230216C2001
:100E1C00FFF7E2FE30210020FFF7CCFE002101207D
:100E2C00FFF7C8FEE1B20220FFF7C4FEC4F30721AE
:100E3C000320FFF7BFFE2946A0B2FFF703FF0321F3
:100E4C00FE20FFF7B7FE38BD024A1368591C11602B
:100E5C00187070472C0A00200B4B1B78052B0FD1F8
:100E6C0010B50A4B1C680A4B1B681C4401F0ACFF04
:100E7C00844202D80622044B1A70034B187810BD1A
:100E8C00014B1878704700BF3A0A0020340A002042
:100E9C003C0A00202DE9F04105460E46604B1C78BB
:100EAC000134E4B21C704FF4C872002104F040FA13
:100EBC0044235C4A126844F46041284600F0CAFBA3
:100ECC00594B1B681A68C5F806209A886A814FF03E
:100EDC00FF322A60AA804FF0820885F81180112118
:100EEC00E975C5F81E20432285F82520002485F8D5
:100EFC002240442285F82320012785F82A7085F8A2
:100F0C002B70062285F82C2085F82D40474A126854
:100F1C00C5F82E20464A12886A868022AA86C5F811
:100F2C003A401A68C5F846209B88A5F84A3005F562
:100F3C008B72404B1A606320FFF786FF4046FFF729
:100F4C0083FF5320FFF780FF6320FFF77DFF3520E1
:100F5C00FFF77AFF3846FFF777FF3046FFF774FF4D
:100F6C003D20FFF771FF0720FFF76EFF3846FFF7B4
:100F7C006BFF05E02C4B1B68185DFFF765FF013418
:100F8C00052CF7DD0C20FFF75FFF0A20FFF75CFF55
:100F9C00002404E0284B185DFFF756FF0134092CA0
:100FAC00F8DD032E1FD13220FFF74EFF0420FFF790
:100FBC004BFF002405E01B4B1B68185DFFF744FF3B
:100FCC000134032CF7DD3620FFF73EFF0420FFF73A
:100FDC003BFF002405E0194B1B68185DFFF734FF3D
:100FEC000134032CF7DD3720FFF72EFF0320FFF72A
:100FFC002BFF0120FFF728FF0320FFF725FF06201A
:10100C00FFF722FFFF20FFF71FFF0A4B1968491B50
:10101C002A3989B2284600F06BFBBDE8F08100BF8D
:10102C00400A0020940B0020280A0020300A0020DF
:10103C00380A00202C0A00201C000020980B0020ED
:10104C0010B504462048016020490A60204A13600C
:10105C00204B029A1A60204B039A1A601F4B049A79
:10106C001A60132004F06CF904F092F91C4B034441
:10107C001C4A136000231C4A138010E0134A1168A9
:10108C000022CA5412490968CA5412490968CA5440
:10109C0011490968CA5411490968CA540133032B10
:1010AC00ECDD094B1B685B7910491A0941320A7255
:1010BC0003F00F0341334B7201212046FFF7EAFE88
:1010CC0001220B4B1A7010BD280A0020940B002033
:1010DC00A00B00209C0B0020980B0020900B0020F4
:1010EC0021436500300A0020380A00201C00002033
:1010FC003A0A002008B50321FFF7CCFE0322014B6E
:10110C001A7008BD3A0A0020F8B5244B1B68D0F8B9
:10111C003A201A6000F58D731A4612F8024B5B7870
:10112C00062C14D004D8012C07D0032C0AD02DE0A7
:10113C00332C11D0362C25D028E0194C2468156896
:10114C00256023E0174C2468156825601EE0164CBA
:10115C0024681568256019E00024144D2C6007E004
:10116C00175D124E35683D442D0235600134E4B2F2
:10117C00032CF5D90D4D2E684FF47A7404FB06F44C
:10118C002C6003E00A4C246815682560134442184F
:10119C009342C1D3FFF7AEFF0120F8BD940B0020A2
:1011AC00A00B00209C0B0020900B00203C0A002080
:1011BC00980B002008B50522034B1A7001F004FEB1
:1011CC00024B1860022008BD3A0A0020340A0020A5
:1011DC0045291FD908B590F82330432B1CD190F822
:1011EC002A30022B1AD1D0F82E20104B1B689A42B1
:1011FC0016D190F81A31352B14D190F81C31022BE2
:10120C0002D0052B03D00FE0FFF77EFF08BDFFF7E0
:10121C00D1FF08BD00207047002008BD002008BD8C
:10122C00002008BD002008BD002008BD300A0020A9
:10123C0010B4012A02D101F1090300E00023022AB3
:10124C000BD106330B44083B07E00478427842EAA2
:10125C00042213440230023989B20129F5D829B18C
:10126C00027803EB022301E09BB213441A0CFBD16E
:10127C00D84380B210BC704710B4140A0B4B1C70CE
:10128C000B4B1A70002304E0CC5C0A4AD454013393
:10129C00DBB2032BF8D9002304E0C15C064AD1541D
:1012AC000133DBB2052BF8D910BC7047520A002071
:1012BC002C000020540A0020A40B002010B40023A2
:1012CC0007E003F11A02845CCA5C944205D1013335
:1012DC00DBB2032BF5D9012000E0002010BC7047D5
:1012EC00282914D9037B082B13D1437B062B12D14D
:1012FC00002308E003F12602815C094AD25C91428A
:10130C000BD10133DBB2032BF4D901207047002041
:10131C00704700207047002070470020704700BFC6
:10132C00540A0020292917D9037B082B17D1437B9A
:10133C00BBB9827B452A10D110B4002208E002F11F
:10134C001E01445C0949895C8C420CD10132D2B239
:10135C00032AF4D9012306E0002318467047002322
:10136C00FBE70023F9E7184610BC7047540A00202D
:10137C00002307E09A1D815CC1540449C95C815467
:10138C000133DBB2052BF5D9704700BFA40B00204D
:10139C0010B504460022027642764023037542754E
:1013AC00837514210E30FFF743FF030A2376607612
:1013BC0010BD00BF10B500230AE003F11E0103F1BC
:1013CC001A02845C44540549C95C81540133DBB274
:1013DC00032BF2D9FFF7DCFF10BD00BF540A00202D
:1013EC0070B4042310E003F12505445D214489B257
:1013FC0003F12904065D01550AB1465501E00024AC
:10140C004455090A013BDBB2002BECD170BC704790
:10141C0038B5044690F8243090F8225080F82450C7
:10142C0080F8223090F8253090F8235080F8255021
:10143C0080F82330FFF7D4FF002384F8323084F88F
:10144C003330502384F82E3038BD00BF10B504461D
:10145C00FFF78EFF00232375022262750AE003F169
:10146C00200103F11602A05C60540D49C95CA15423
:10147C000133DBB2052BF2D900230AE003F126017C
:10148C0003F11C02A05C60540649C95CA1540133F1
:10149C00DBB2032BF2D921462A20FFF7B3FC10BD97
:1014AC00A40B0020540A002038B504460D46FFF763
:1014BC005FFF2046FFF77EFF002384F8223094F86C
:1014CC002430F72B04D994F82520013284F82520F8
:1014DC00083384F8243021462846FFF793FC38BDA6
:1014EC0038B50446FFF744FF002525742C2363749C
:1014FC002046FFF75FFF122384F82F302A46012184
:10150C002046FFF785FF84F8265084F82750154AAB
:10151C00137884F8283084F829500333137002228E
:10152C0084F83620042384F83730052384F83830C7
:10153C0084F83950602184F82E1084F830307823E8
:10154C0084F83130202104F11A00FFF771FE030AF0
:10155C0084F8323084F8330021463A20FFF752FCED
:10156C0038BD00BF2B000020027C437C43EA0223E1
:10157C001BB2143B9BB290F82E000009A3EB800029
:10158C0000B2002800DC002080B2704770B5044621
:10159C000D461646FFF7ECFE46F0100384F82F308C
:1015AC00042E05D10122A9B22046FFF731FF06E037
:1015BC0005B901250122A9B22046FFF729FF002514
:1015CC002574282363742046FFF7F4FE042384F863
:1015DC00303084F8315002221C2104F11A00FFF73C
:1015EC0027FE030A84F8323084F833002146362073
:1015FC00FFF708FC70BD00BF38B504460D4601F17D
:10160C0028039BB21A0A02744374FFF7C1FE00232D
:10161C0084F8323084F8333005F11C01022289B28F
:10162C0004F11A00FFF704FE030A84F8323084F840
:10163C003300214605F13600FFF7E4FB38BD00BF4F
:10164C0005E012F8013B00F8013B013989B2002991
:10165C00F7D170472DE9F04104460E4615461F465A
:10166C00002308E01E4AD25CE2549A1D1D49C95C55
:10167C00A1540133DBB2052BF4D9082323734FF0AB
:10168C00000884F80D80184A092104F10E00FFF7B8
:10169C00D7FF84F810801123E37543460AE003F169
:1016AC001E02E95CA15403F11A021049C95CA15451
:1016BC000133DBB2032BF2D93B0A84F8243084F8D3
:1016CC002570330A84F8223084F82360002384F8D0
:1016DC00263084F8283084F82930BDE8F08100BF2A
:1016EC00680A0020A40B0020A05C0008540A00200B
:1016FC0070B504460D4601F11C031B120374CEB2E7
:10170C0006F11C034374FFF743FE05F108031B129B
:10171C0084F82630083684F8276005F11001012280
:10172C0089B204F11A00FFF783FD030A84F828300C
:10173C0084F82900214605F12A00FFF763FB70BDF0
:10174C0038B504460D46002307E0FF22E2549A1DEB
:10175C001B49C95CA1540133DBB2052BF5D9082117
:10176C00217306236373174A04F10E00FFF768FF19
:10177C0000230AE003F116021149C95CA15403F1DC
:10178C0020020021A1540133DBB2052BF2D9002336
:10179C000AE003F12602E95CA15403F11C020A4998
:1017AC00C95CA1540133DBB2032BF2D9074A13787D
:1017BC0043F00803137021462A20FFF723FB38BDA2
:1017CC00A40B0020AC5C0008540A00202D00002063
:1017DC00002308E003F11C02815C0B4AD25C9142AD
:1017EC0010D10133DBB2032BF4D9002306E003F153
:1017FC001602815C054AD1540133DBB2052BF6D9B4
:10180C000120704700207047600A0020680A002001
:10181C000023074A13800121064A117004E0C15CC1
:10182C00054AD1540133DBB2032BF8D9704700BF02
:10183C00280000202D000020600A00202DE9F04136
:10184C0004460D4617461E46002308E03B4AD25C70
:10185C00E2549A1D3A49C95CA1540133DBB2052B01
:10186C00F4D9082323734FF0000884F80D80354A0F
:10187C00092104F10E00FFF7E3FE2C236374062309
:10188C00E37543460BE003F11E022F49C95CA154DA
:10189C0003F11A022D49C95CA1540133DBB2032BAD
:1018AC00F1D92046FFF774FD84F8247084F8256084
:1018BC000B2384F8223084F82350002305E003F135
:1018CC0026020021A1540133DBB2072BF7D9204AA1
:1018DC00137884F8283003331370602384F82E3087
:1018EC00022284F82F20042184F83010002384F87D
:1018FC00313084F8323084F8333084F8343084F862
:10190C00353084F8362084F8371084F838202623B4
:10191C0084F83930202104F11A00FFF789FC030AFE
:10192C0084F8323084F8330021463A20FFF76AFA03
:10193C00084801F01DFEBDE8F08100BF680A0020D8
:10194C00A40B0020A05C0008440A0020540A0020CC
:10195C002B000020F85B00082DE9F041044600291B
:10196C0032D1B24B1B7813F0010F04D1AF4B1B7863
:10197C0013F0040F07D0AE4BB3F900301BB9AD49CF
:10198C002046FFF7DDFEAA4A138801331380AA4BC9
:10199C001B78012B40F0C2810222A74B1A70A74A78
:1019AC0013780133DBB21370A54A117803F01F03CF
:1019BC0043EA4111A34B1B78A34A1278C9B22046C3
:1019CC00FFF73CFF0025C0E10E46FFF789FCD0B1C4
:1019DC00637D012B02D12046FFF738FD934B1B781A
:1019EC0013F0080F00F09C81637D022B40F09A816C
:1019FC002046FFF7EDFE002800F0968102228B4B6B
:101A0C001A700025A1E131462046FFF78BFC002817
:101A1C0000F08C81E37D112B07D194F8222022B9A0
:101A2C0094F82320352A00F08381012B12D194F8ED
:101A3C002220082A0ED1854B1B6813B104F11A0021
:101A4C00984731462046FFF72FFD814801F090FD65
:101A5C0000257AE1352E02D8062B40F06B8194F8E4
:101A6C0024300B2B40F029817A4B1C607A4920469C
:101A7C00FFF724FC002800F05F8194F82F5015F03C
:101A8C00040F13D0754B1B685BB1754801F070FDEA
:101A9C0094F82500714B1C6800231A460321400959
:101AAC00A0470522644B1A7000254EE12046FFF733
:101ABC005BFD0746604B1B78022B38D105F01203F7
:101ACC00122B24D1674801F053FD00221146204609
:101ADC00FFF75CFD182384F82F30634B1B6853B160
:101AEC00624801F045FD604B1B6894F823004009E7
:101AFC009847014600E0002103224F4B1A70204604
:101B0C00FFF77AFD5A4801F033FD00251DE1012253
:101B1C00494B1A70811889B215F0100F00D00021B2
:101B2C00042209B22046FFF731FD00250DE1042BFC
:101B3C0037D14A4B1B68F3B194F82E502D09AD00E8
:101B4C002235A6F108039D4200DD9DB2EB199E42A1
:101B5C0002DA761BB6B200E03E46464801F008FDBC
:101B6C003E4BD3F8008094F8250033462A460021DA
:101B7C004009C04700E0002060B13F4801F0F8FC8C
:101B8C00092239B22046FFF701FD05222A4B1A70B3
:101B9C000025DAE0002239B22046FFF7F7FC0025D9
:101BAC00D3E0032B3AD10422234B1A702B4B1B6826
:101BBC00F3B194F82E50D540AD002235A6F10803B0
:101BCC009D4200DD9DB2EB199E4202DA761BB6B245
:101BDC0000E03E46274801F0CBFC204BD3F80080B8
:101BEC0094F8250033462A4600214009C04700E0FE
:101BFC00002060B1204801F0BBFC092239B220461C
:101C0C00FFF7C4FC05220C4B1A7000259DE0002246
:101C1C0039B22046FFF7BAFC002596E0052B2FD1F0
:101C2C00164801F0A5FC00258FE000BF2D00002018
:101C3C0028000020600A0020650A00202A000020ED
:101C4C00660A0020640A0020670A00205C0A002053
:101C5C00085C0008580A0020440A00204C0A0020A6
:101C6C00145C0008385C0008480A0020445C00083A
:101C7C00585C0008645C00087C5C0008885C000808
:101C8C0015F0010F0DD0324801F072FC791C0922BD
:101C9C0009B22046FFF77AFC05222E4B1A7000255C
:101CAC0053E000284AD0002201B22046FFF76EFC18
:101CBC00294801F05DFC002547E0284A1278934240
:101CCC003ED194F82520264B1B789A423AD194F8B1
:101CDC002F7017F0020F04D02046FFF701FC0025EF
:101CEC0033E017F0100F2FD02046FFF73DFC0546D0
:101CFC001C4B188040B917F0010F26D0002211465A
:101D0C002046FFF743FC20E094F82E502D09AD003F
:101D1C002235083EB54218DD002516E0002514E0FA
:101D2C00002512E0002510E000250EE000250CE057
:101D3C002A250AE0002508E0002506E0002504E03D
:101D4C00002502E0002500E000252846BDE8F081D2
:101D5C00945C0008650A0020585C0008520A0020B8
:101D6C002C000020500A002008B5274B1B78DBB252
:101D7C00012B0BD14FF48571244803F06DF8002230
:101D8C00214B1A70224801F0F3FB08BD1E4B1B7847
:101D9C00DBB2022B0BD14FF496711E4803F05CF8AA
:101DAC000022194B1A701C4801F0E2FB08BD164BBF
:101DBC001B78DBB2032B0BD14FF49671174803F051
:101DCC004BF80022104B1A70154801F0D1FB08BDDE
:101DDC000D4B1B78DBB2042B0BD14FF496711148D1
:101DEC0003F03AF80022084B1A700F4801F0C0FBC0
:101DFC0008BD10220D4B1A700022034B1A700C48B0
:101E0C0001F0B6FB08BD00BF740A0020C00300201F
:101E1C00B45C00083C000020CC5C00086801002089
:101E2C00E45C000894020020FC5C00080C0F00200D
:101E3C00145D000808B5054B1B7813B902F02CF89B
:101E4C0008BD1022024B1A7008BD00BF750A002095
:101E5C000C0F002038B53D494FF4487001F066FD79
:101E6C0080B23B4B188000282FD03A4A138801339C
:101E7C001380394B1880354B9C894FF4006002F06D
:101E8C00B1F8844211D1344C314B1B88238003F0C0
:101E9C00BFF8012002F0E6F82388B3B103F050F943
:101EAC002A49208801F096FD0FE0284B9C8940F6CA
:101EBC00060002F097F8844207D103F0D1F8264BC4
:101ECC00188810B1214901F085FD00F07DFFA0F5C7
:101EDC00FA70224B1B68984237D900F075FF1F4BE4
:101EEC001860002413E01C4D00232B801C4B03EBCB
:101EFC0044131C4A1360022002F0B4F82B882BB157
:101F0C0003F01EF91149288801F064FD0134032CFB
:101F1C00E9DD154B1B78ABB138BD0F4D00232B8081
:101F2C00124B03EB0413124A1360052002F09AF8CB
:101F3C002B882BB103F004F90449288801F04AFDE1
:101F4C00013400E00024032CE7DD38BDB00F002085
:101F5C00B40B0020AC0B0020000F0020B00B0020B5
:101F6C001C0F0020180F0020750A00209C13002065
:101F7C00100F002030B583B00278437843EA022377
:101F8C001A0A42EA0323ADF804308278C37843EA94
:101F9C0002231A0A42EA0323ADF80630084602F07F
:101FAC0021F8014601A802F08DFE044600F00CFF5A
:101FBC0000F57A65124801F0DBFAFFF74BFFCCB95C
:101FCC0000201BE0FFF746FF637E03F00F03032B9B
:101FDC0008D10C4801F0A8FA617E0B4801F0A4FA74
:101FEC0001200BE000F0F0FE401B002802DD002079
:101FFC00607603E0607E10F00F00E3D103B030BDDB
:10200C00205D0008345D0008585D0008F0B587B00D
:10201C000546002305E006AA1A44302102F8141CD8
:10202C000133132BF7DD00273C464FE026462B5D92
:10203C004D2B4AD12B195B78692B46D12B199B78E8
:10204C006C2B42D12B19DB786C2B3ED12B191B79C5
:10205C00692B3AD12B195B79732B36D12B199B79C0
:10206C003D2B32D1FEF71AFA10E0791C194BA3FB69
:10207C000023DB089E4603EB83035A00831A06AA4F
:10208C001744303307F8143C7046CFB20028ECD11B
:10209C0006AB1F44302307F8143C0027092309E042
:1020AC00E21D3A4406A9194411F8141CA95401372D
:1020BC00FFB2013B002BF3DA06F110023023AB54D4
:1020CC0006F11102AB541236AB550134952CADDD33
:1020DC0007B0F0BDCDCCCCCC10B584B0384C20467C
:1020EC0001F0B8FB2278374B1A7062785A70A278DC
:1020FC009A70E278DA7022791A7162795A7101F069
:10210C0033FF02F03FFF304801F032FA062120463F
:10211C0001F0A6FE0AE02D4801F02AFA4FF47A707D
:10212C0000F058FE0621264801F09AFE01F0B2FD9F
:10213C000028F0D00122264B1A70264B1A88ADF8D5
:10214C000C205B88ADF80E30234801F011FA9DF895
:10215C000C109DF80D209DF80E309DF80F0000908E
:10216C001E4801F0E1F91E4B19885B88C3F3072266
:10217C000092DBB2C1F30722C9B21A4801F0D4F9BC
:10218C00194B19885B88C3F307220092DBB2C1F3A9
:10219C000722C9B2154801F0C7F9154801F0E8F952
:1021AC00144801F0E5F900F00FFE00F51C5010305A
:1021BC00114B18600022114B1A7004B010BD00BFF7
:1021CC0034000020E40A0020685D0008785D0008F7
:1021DC00750A0020AC0F00208C5D0008A85D00087B
:1021EC00A40F0020BC5D0008A80F0020D05D0008E3
:1021FC00E85D0008045E0008700A0020740A0020E4
:10220C0008B5002863D0334B1B7813F0FF0F1DD19A
:10221C0001291BD1304801F0ABF901222D4B1A706A
:10222C0041F690712D48FFF7A5FE38B92C4801F006
:10223C009FF941F690712948FFF79CFE00F0C4FD10
:10224C0000F543405030274B186040E0022A13D170
:10225C00254801F08DF92548FFF7D8FE02221D4BC9
:10226C001A7041F690711D48FFF784FE0028F8D0D3
:10227C001F4801F07DF92AE0042A13D11D4801F012
:10228C0077F91D48FFF7C2FE0322124B1A7041F674
:10229C0090711248FFF76EFE0028F8D0144801F038
:1022AC0067F914E0082A12D1144801F061F91448B6
:1022BC00FFF7ACFE0422074B1A7041F690710748E9
:1022CC00FFF758FE0028F8D0094801F051F902F048
:1022DC006FFE08BD740A00201C5E00083000002050
:1022EC00485E0008700A00205C5E00083C0000207C
:1022FC00885E0008945E000868010020C85E000833
:10230C00940200202DE9F04F85B00446884615460E
:10231C009B46109F00F058FD8146129B0293119B27
:10232C00019300970F9B0E9A29462046FEF788FED4
:10233C004FF0030A00263AE021464046FEF70EFD18
:10234C000546A0B3642000F045FDADB229462046F9
:10235C00FFF702FB58BB29462046FEF739FFFEF774
:10236C007BFD052819D000F02FFD09F57A739842F2
:10237C001DD900F029FD81460AF1FF3A1AF0FF0A37
:10238C0019D0129B0293119B019300970F9B0E9AED
:10239C000B492046FEF754FE09E046B95A460E9901
:1023AC000748FEF769FF3846FFF732FA0126002E80
:1023BC00C2D0012000E0002005B0BDE8F08F00BFC6
:1023CC00E004002090F82230BA2B03D190F823209F
:1023DC00C02A07D0E42B40F0128190F82330032B55
:1023EC0040F00D8190F82430BA2B40F0088190F821
:1023FC002530C02B40F0038190F82A30812B40F01F
:10240C00FE802DE9F04188B090F82F2012F0200FBB
:10241C0001D1302300E0342312F0080F01D0043333
:10242C00DBB204461846E25C102A16D1E5186D782A
:10243C009DB9734D2D7885B9A17E72480170E27EED
:10244C004270237F8370647FC47000946E4801F0E7
:10245C006BF801226A4B1A70CEE0302A40F0CC8027
:10246C00221892780E2A40F0C7802218D2780C2AB3
:10247C006CD125186D79C02D68D12218967907304A
:10248C00225C42EA0626FF25002207E05F4F37F860
:10249C001270BE4200D1D5B2013292B2092AF5D9DE
:1024AC00FF2D03D15A4801F063F8A5E00833E25C34
:1024BC001E2A40F0A18046E01A46E6187678292EAE
:1024CC003FD1E618B678552E3BD1E618F6784E2E4D
:1024DC0037D1E6183679912E33D1E618B6794F2ECE
:1024EC002FD129464B4E755D45B9E5186D79012DF7
:1024FC0004D9464D35F81160474D2E80224452794F
:10250C00444D6A54225C013A591D444801F00CF8C0
:10251C0029786A78AB78E8782C796E79AF7995F868
:10252C0007E095F808C06D7A0695CDF814C0CDF883
:10253C0010E00397029601940090394800F0F4FFE4
:10254C005AE001339BB28B42B6D355E00C2A53D1DF
:10255C0022185279002A4FD1221895790730225C23
:10256C0042EA0525002209E02E4E36F81260B542EB
:10257C0002D15FFA82FE05E0013292B2012AF3D950
:10258C004FF0FF0EBEF1FF0F36D00833E25C1E2A6F
:10259C0032D12FE0E5186D78292D29D1E518AD78C9
:1025AC00552D25D1E518ED784E2D21D1E5182D7935
:1025BC00442D1DD1E5186D7A4F2D19D103F1050865
:1025CC009F1DDE1D03F10805615D174A02F80E1010
:1025DC00225C013A4146154800F0A6FF14F8081099
:1025EC00E25DA35D605D0090114800F09DFF03E08B
:1025FC0001339BB28B42CDD308B0BDE8F08170475C
:10260C00E90E0020900A0020FC5E0008CC0400209B
:10261C00245F0008800A00208A0A00202C5F000832
:10262C00545F0008F0040020780A0020885F00083E
:10263C00B05F000808B50B494FF44870FEF78EFBED
:10264C0081B2094B198031B1084A138801331380C8
:10265C000448FFF7B7FE044B19880248FFF77CF9D2
:10266C0008BD00BFBC0B0020B80B00208C0A00205A
:10267C002DE9F04387B0DFF8D4904846FEF7FEFA18
:10268C00DFF8CC80002788F80070224B1B88224A88
:10269C000492224C0394224D0295224A0192224E1E
:1026AC0000964A4640F221312048FFF72BFE88F86D
:1026BC000000DFF8A080404600F05AFF31787278B5
:1026CC00B378F07800901A4800F02EFF29786A78D9
:1026DC00AB78E8780090174800F026FF21786278F4
:1026EC00A378E0780090144800F01EFF134800F027
:1026FC003FFF404600F03CFF00F066FB00F5FA603F
:10270C000F4B18600F4B1F700F4B1F7007B0BDE8BD
:10271C00F08300BFE6040020E40E0020EC0400204F
:10272C00E8040020FC0E0020F4040020BC0B002068
:10273C00C85F0008EC5F00081060000834600008F7
:10274C007C0A0020E90E0020DD0E0020E0040020B1
:10275C00E80E00208C5D000800B585B0194A01AB6D
:10276C0010685168926807C3174B1978174A117093
:10277C00597851709B789370FF23D370144B1B883E
:10278C00144909881448FEF765FF002309E003F19A
:10279C002A0204A9194411F80C0C0F49885401336E
:1027AC009BB20B2BF3D90C48FF230370437083703F
:1027BC00C370037143710C21FEF79AFF05B05DF8ED
:1027CC0004FB00BFBC5A0008F4040020E00E0020FB
:1027DC00FA040020F8040020BC0B0020F0B587B0F0
:1027EC0005460C46164601AFDFF89CE05EF80C0F70
:1027FC00DEF80410DEF80820DEF80C300FC7BEF847
:10280C0010209EF812303A80BB701A4B19781A4A75
:10281C0011705978517099789170DB78D370174B8F
:10282C001B88174909881748FEF714FF002309E095
:10283C0003F12A0206A9194411F8140C1149885401
:10284C0001339BB2122BF3D90E4BFF221A705A7024
:10285C009A70DA701A715A7116B1002283F8362008
:10286C00084880F8325080F838401321FEF740FFBA
:10287C0007B0F0BD900A0020E00E0020FA04002002
:10288C00F8040020BC0B0020BC5A000870B500F006
:10289C009BFA2D4B1B68984254D92C4B1B787BB957
:1028AC002B4800F065FEFFF757FF00F08DFA00F59E
:1028BC001C501030244B18600022264B1A7070BD2F
:1028CC00244B1B78092B14D8234E244D002236F8A8
:1028DC0013102878FFF782FF1E4C2278134636F827
:1028EC00122029781E4800F01FFE23780133237034
:1028FC0015E00A3B1B4E194D012236F813102878AF
:10290C00FFF76CFF134C2378A3F10A0236F8122060
:10291C002978154800F008FE23780133237000F065
:10292C0053FA00F5FA60084B18600A4B1B780B49F8
:10293C000A78501C08700D49CA540B2B02D900227E
:10294C00044B1A7070BD00BF7C0A0020E90E0020F9
:10295C004C600008F80E0020CC040020DD0E002096
:10296C0064600008F004002088600008EC0E002071
:10297C0038B500F00BF9294800F0FAFD284800F0B2
:10298C00F7FDFFF7A9FBFFF773FE642000F022FAB6
:10299C00244800F0EDFD002201210846FFF730FC31
:1029AC0000F012FA0446FFF755FA002211460120F6
:1029BC00FFF726FCFFF73EFE1B4B197859B11B485D
:1029CC0000F0B2FD184D2A7800210120FFF718FC09
:1029DC0000232B700EE008211548FDF75FFC48B171
:1029EC00114B1978114800F09FFD0822002101209D
:1029FC00FFF706FCFFF74AFF0E4BA3FB04235B0B10
:102A0C0042F2107202FB1343002BC9D1FDF7DEFE1C
:102A1C00FDF7C2FF084800F0ABFDC1E7AC60000851
:102A2C00C8600008E06000088A0A0020F060000816
:102A3C00000801405917B7D104610008DFF834D001
:102A4C00002103E00C4B5B58435004310B480C4BFA
:102A5C0042189A42F6D30B4A02E0002342F8043B98
:102A6C00094B9A42F9D300F06DFC02F021FCFFF700
:102A7C007FFF704700500020F86300080000002022
:102A8C00000A0020000A0020E0130020FEE70000EE
:102A9C0008B5024800F048FDFEE700BF08610008D9
:102AAC0008B5024800F040FDFEE700BF14610008C5
:102ABC00FEE700BFFEE700BFFEE700BF704700BFA8
:102ACC00704700BF704700BF704700BF70B582B041
:102ADC0001211020FDF77AFC10258DF807504FF4DA
:102AEC000053ADF8043001248DF8064001A92448A8
:102AFC00FDF786FB21460820FDF768FC8DF8075092
:102B0C004023ADF804308DF806401E4E01A9304626
:102B1C00FDF776FB8DF807508023ADF804308DF867
:102B2C00064001A93046FDF76BFB21460420FDF75A
:102B3C004DFC48238DF80730ADF804508DF8064055
:102B4C00114D01A92846FDF75BFB28268DF807607F
:102B5C000423ADF804308DF806400DEB0301284634
:102B6C00FDF74EFB8DF807600823ADF804308DF8A7
:102B7C00064001A92846FDF743FB02B070BD00BF1B
:102B8C0000100140000C01400008014008B5FFF79F
:102B9C009DFF00F0DFF800F0A9FA00F0F3FA00F066
:102BAC0005F800F071F800F061FA08BD2DE9F0436A
:102BBC0087B001210420FDF709FC10238DF80330A8
:102BCC004FF48079ADF8009001248DF80240DFF8C5
:102BDC00B48069464046FDF713FB18258DF8035069
:102BEC004FF40053ADF800308DF80240234E694687
:102BFC003046FDF705FB28238DF803304FF4804752
:102C0C00ADF800708DF8024069463046FDF7F8FAD1
:102C1C008DF803504FF40043ADF800308DF80240AE
:102C2C0069463046FDF7ECFA49464046FDF740FB55
:102C3C0021463846FDF7D8FB0023ADF804304FF49D
:102C4C008272ADF80620ADF80830ADF80A30ADF858
:102C5C000C304FF44072ADF80E20ADF81050ADF8BA
:102C6C001230074D01A92846FDF766FC214628467F
:102C7C00FDF788FC07B0BDE8F08300BF000C0140F5
:102C8C000038004000080140F0B587B00121082051
:102C9C00FDF79CFB10238DF803300124ADF80040A8
:102CAC008DF80240284F69463846FDF7A9FA1825D9
:102CBC008DF803502023ADF800308DF80240234EE0
:102CCC0069463046FDF79CFA28238DF803304023E3
:102CDC00ADF800308DF8024069463046FDF790FAA9
:102CEC008DF803508023ADF800308DF80240694612
:102CFC003046FDF785FA21463846FDF7D9FA2146CC
:102D0C004FF48050FDF762FB0023ADF804304FF414
:102D1C008272ADF80620ADF80830ADF80A30ADF887
:102D2C000C304FF44072ADF80E20ADF81050ADF8E9
:102D3C001230074D01A92846FDF7FEFB2146284617
:102D4C00FDF720FC07B0F0BD000C0140000801406D
:102D5C000030014010B584B001210846FDF744FB5A
:102D6C004FF40073ADF80A300024ADF8064042F67B
:102D7C00E063ADF8083004A9052321F80C3D4FF0B1
:102D8C008040FDF70DFC1C238DF800308DF80140C0
:102D9C0003238DF8023001248DF803406846FDF7BB
:102DAC00D7F9224621464FF08040FDF751FC2146D1
:102DBC004FF08040FDF73EFC4FF08052014B1A6003
:102DCC0004B010BD00E100E0014B1868704700BF73
:102DDC00980A002038B50546FFF7F6FF0446FFF7C2
:102DEC00F3FF001BA842FAD338BD00BF38B5054627
:102DFC00FFF7EAFF0446FFF7E7FFA3B2C01AA842A9
:102E0C00F9D338BD08B501214FF08040FDF72CFCFB
:102E1C00A8B101214FF08040FDF732FC084B1A7825
:102E2C0012F0FF0F0CBF012200221A701A788021B9
:102E3C000448FDF73FFA044A13680133136008BDD8
:102E4C00940A0020000C0140980A002008B50121CA
:102E5C004FF0C050FDF7C8FA0120FDF731FAFDF72D
:102E6C00A9F90120FDF732FA4120FDF7D1FA00282B
:102E7C00FAD04FF48070FDF73DFA0120FDF742FACD
:102E8C00FDF748FBFDF73CFB01210846FDF7E2FA94
:102E9C00FDF736FB48F20500FDF722FBFDF730FB92
:102EAC0008BD00BFF0B583B007460E46002501955E
:102EBC001FE020212C48FDF761FC0028F9D02A489E
:102ECC00FDF758FCC0B202AB2B4403F8040C6C1C8D
:102EDC00E4B200F0A3F9631E02AA134413F8043CF5
:102EEC00303BDBB2092B03D9204800F01DFB00E07E
:102EFC002546B542DDD3042E1DD19DF807309DF833
:102F0C00060030389DF80520303A9DF80410303911
:102F1C0000EB80004400234402EB820202EB8202AD
:102F2C0090000344C1EB411201EB8201C80018442C
:102F3C00303880B20EE0022E0BD19DF805309DF892
:102F4C000420303A02EB820250001844303880B230
:102F5C0000E00020B84204D93946054800F0E4FAF4
:102F6C00FF2003B0F0BD00BF003801402061000815
:102F7C004C6100082DE9F04182B02F4800F0D4FAE2
:102F8C002E4800F0D1FA4FF6FF7405E0042140F60C
:102F9C003300FFF787FF04464FF6FF739C42F5D0D2
:102FAC00274800F0C1FAFF2504E002210C20FFF7AE
:102FBC0079FFC5B2FF2DF8D0224800F0B5FAFF26F4
:102FCC0004E002211F20FFF76DFFC6B2FF2EF8D0E0
:102FDC001D4800F0A9FAFF2704E002211720FFF793
:102FEC0061FFC7B2FF2FF8D0184800F09DFA4FF0E0
:102FFC00FF0805E002213B20FFF754FF5FFA80F841
:10300C00B8F1FF0FF6D0124800F08EFAFF2004E062
:10301C0002213B20FFF746FFC0B2FF28F8D00190F9
:10302C00CDF800803B46324629462046FDF758FC39
:10303C0002B0BDE8F08100BF7C610008C0610008EF
:10304C00D8610008F06100080862000820620008DE
:10305C003862000810B5FFF78DFF0446FDF750FAF3
:10306C002046FDF72FFAFDF74BFA10BD08B50420EA
:10307C00FDF7B6F84AF2A55398420FD0164800F067
:10308C0053FAFFF7E3FE154800F04EFAFFF7E2FFA4
:10309C004AF2A5510420FDF795F819E07B20FDF7C5
:1030AC00B7F918B10E4800F03FFA06E07A20FDF7A8
:1030BC00AFF910B10B4800F037FA0B4800F034FAB6
:1030CC00FDF728FA01210846FDF7C4F9FDF718FAB7
:1030DC00FDF7B8F908BD00BF506200087062000827
:1030EC0088620008A8620008C862000830B587B082
:1030FC0001210820FDF76AF918238DF807304FF4E9
:10310C008063ADF8043001248DF806401A4D01A9F6
:10311C002846FDF775F804238DF807304FF400634B
:10312C00ADF804308DF8064001A92846FDF768F883
:10313C0021464FF48020FDF757F94FF4E133029309
:10314C000023ADF80C30ADF80E30ADF810300C2279
:10315C00ADF81220ADF81430A5F5444521462846AB
:10316C00FDF7F6FA02A92846FDF78EFA8022034BEA
:10317C005A6007B030BD00BF000C014000E100E018
:10318C00704700BF30B587B001210420FDF71EF950
:10319C0018238DF807304FF40073ADF80430012478
:1031AC008DF806401A4D01A92846FDF729F804238D
:1031BC008DF807304FF48063ADF804308DF806407D
:1031CC0001A92846FDF71CF821464FF48040FDF775
:1031DC00FDF84FF4E13302930023ADF80C30ADF859
:1031EC000E30ADF810300C22ADF81220ADF81430C2
:1031FC0005F5405521462846FDF7AAFA02A92846AE
:10320C00FDF742FA2022034B5A6007B030BD00BFD5
:10321C000008014000E100E0704700BF10B5044613
:10322C0040210548FDF7AAFA0028F9D021460248AA
:10323C00FDF79CFA10BD00BF003801400346054A5B
:10324C00126812B90449034A1160024A1068034417
:10325C00136070479C0A0020E013002070B50E46E6
:10326C001546002403E0305DFFF7D8FF0134AC4273
:10327C00F9DB012070BD00BF82B0002301930093E5
:10328C002C4A136843F4803313602A4B1B6803F4F5
:10329C0000330093019B01330193009B1BB9019BED
:1032AC00B3F5005FF1D1234B1B6813F4003F02D040
:1032BC000123009301E000230093009B012B36D1E6
:1032CC001D4B1A6842F010021A601A6822F00302B1
:1032DC001A601A6842F002021A60A3F580535A6809
:1032EC005A605A685A605A6842F480625A605A6846
:1032FC0022F47C125A605A6842F4E8125A601A6836
:10330C0042F080721A600B4B1B6813F0007FFAD0EE
:10331C00084B5A6822F003025A605A6842F00202C3
:10332C005A60044B5B6803F00C03082BF9D102B014
:10333C00704700BF001002400020024008B5FFF7A4
:10334C009BFF08BD08B5104B1A6842F001021A60C9
:10335C0059680E4A0A405A601A6822F0847222F4A4
:10336C0080321A601A6822F480221A605A6822F499
:10337C00FE025A604FF41F029A60FFF7DFFF4FF016
:10338C000062034B9A6008BD001002400000FFF879
:10339C0000ED00E070B4012301E002FB03F3B1FB8C
:1033AC00F3F49442F9D212E0B1FBF3F403FB1411E1
:1033BC0093FBF2F3092C05DD05686E1C06603734AF
:1033CC002C7004E005686E1C066030342C70002BE9
:1033DC00EAD170BC704700BF70B582B001900C464A
:1033EC001546064655E0252B4DD16378642B19D034
:1033FC0006D8582B39D0632B0DD0252B41D13BE06F
:10340C00732B1ED002D8692B0CD03AE0752B25D02B
:10341C00782B2AD035E0019A531C01932B68043584
:10342C0013702EE029680435002905DA4942019B06
:10343C005A1C01922D221A700A2201A8FFF7AAFF2A
:10344C001FE02B68043505E0019A511C0191197895
:10345C00117001331A78002AF6D112E00A22296879
:10346C00043501A8FFF796FF0BE0102229680435FC
:10347C0001A8FFF78FFF04E0019B5A1C0192252243
:10348C001A70023405E0019B5A1C019222781A70C2
:10349C0001342378002BA6D10022019B1A700198CD
:1034AC00801B02B070BD00BF10B40346002035E095
:1034BC00252A31D15C1C5B78583B202B29D8DFE8BE
:1034CC0003F02428282828282828282828111528FB
:1034DC002828281528282828282828282819281595
:1034EC002828240004310130234616E00B30043127
:1034FC00234612E00B68043101E0013013465A1CDC
:10350C001B78002BF9D1234607E008300431234601
:10351C0003E00130234600E0013001331A78002A21
:10352C00C6D110BC704700BF0FB4B0B582B000AFAD
:10353C0007F1180454F8045B7C6021462846FFF719
:10354C00B3FF073020F00700ADEB000D7C60224686
:10355C0029466846FFF740FF024669460120FFF7FF
:10356C007DFE0837BD46BDE8B04004B0704700BFD3
:10357C0038B50546FCF7E4FD044602462946012011
:10358C00FFF76CFE0546012206491046FFF766FE62
:10359C0028440134A04201D1002038BD4FF0FF3047
:1035AC0038BD00BFF45B00080C4B98810B4B1B899A
:1035BC0003F002039BB2002BF8D0084B1B8913F0CD
:1035CC00010FFAD0054B1B8903F080039BB2002B33
:1035DC00F8D1024B9889C0B2704700BF0038004048
:1035EC00F8B506460C4615461F464FF480710C483C
:1035FC00FCF75EFE04F01F003043FFF7D5FF0024FC
:10360C0006E06E1C0020FFF7CFFF28700134354612
:10361C00BC42F6DB4FF480710148FCF747FEF8BD65
:10362C0000080140F8B506460C4615461F464FF4F7
:10363C0080710C48FCF73CFE04F01F003043FFF790
:10364C00B3FF002405E06E1C2878FFF7ADFF0134B2
:10365C003546BC42F7DB4FF480710248FCF726FE7E
:10366C00F8BD00BF0008014038B505460C464FF4C4
:10367C0080710648FCF71CFE2846FFF795FF24B91D
:10368C004FF480710148FCF711FE38BD0008014071
:10369C0008B500F0E0000F4B1B78984219D0E028D9
:1036AC0017D00C4B18704009032812D8DFE800F033
:1036BC0002060A0EC020FFF7D7FF08BDC220FFF795
:1036CC00D3FF08BDC420FFF7CFFF08BDC620FFF70E
:1036DC00CBFF08BDA20A002010B582B00446012120
:1036EC00FFF7D6FF01230DF1060204F01F010020A5
:1036FC00FFF776FF9DF8060002B010BD10B582B042
:10370C0004460121FFF7C4FF02230DF1060204F069
:10371C001F010020FFF764FFBDF8060002B010BDCA
:10372C0030B583B0054602AC04F8011D0121FFF74A
:10373C00AFFF0123224629468020FFF773FF03B019
:10374C0030BD00BF70B582B004460E460121FFF7B4
:10375C009FFF02AD05F8016D01232A4604F01F01FD
:10376C004020FFF75FFF360A8DF80760611C0123CC
:10377C002A4601F01F014020FFF754FF02B070BD34
:10378C0030B583B0054602AC04F8011D0121FFF7EA
:10379C007FFF0123224629464020FFF743FF03B059
:1037AC0030BD00BF70B506460C4615464FF480710F
:1037BC000948FCF77DFD3046FFF7F6FEE0B2FFF757
:1037CC00F3FE200AFFF7F0FE25B94FF48071024892
:1037DC00FCF76CFD70BD00BF0008014038B5044615
:1037EC000D464FF480710B48FCF762FD2C20FFF75F
:1037FC00DBFE06E0013CA4B20020FFF7D5FE05F885
:10380C00010B002CF6D14FF480710248FCF74EFDF1
:10381C0038BD00BF0008014070B505460E464FF498
:10382C0080710B48FCF744FD2A20FFF7BDFE04E035
:10383C0016F8010BFFF7B8FE25466B1E9CB2002D47
:10384C00F6D14FF480710248FCF730FD70BD00BF1B
:10385C000008014010B5044641F234211620FFF750
:10386C0071FF04E041F234211620FFF76BFF1620A4
:10387C00FFF744FF41F234239842F3D1FB20FFF7CA
:10388C002BFF10F4805FF9D10021CA20FFF7ECFE6A
:10389C001920FFF7ABFA1620FFF730FF002842D1B2
:1038AC0040F20910FFF7A2FA4FF49A511E4B1980FF
:1038BC000420FFF747FF45F6FF710620FFF742FF94
:1038CC0045F6FF711620FFF73DFF45F6FF711820F6
:1038DC00FFF738FF59213420FFF752FFF021422027
:1038EC00FFF71EFF40F2DC514A20FFF72BFF217837
:1038FC006420FFF745FF61786520FFF741FFA17851
:10390C006220FFF73DFFE1786320FFF739FF217953
:10391C006020FFF735FF61796120FFF731FF00214F
:10392C00E820FFF7A1FE10BDA00A002070B582B000
:10393C0006460D46FC20FFF7CFFE10F0400F41D09D
:10394C00234C002221886420FFF72CFF69460220BB
:10395C00FFF744FF9DF801209DF8003043EA022355
:10396C00238069460620FFF739FF9DF801409DF83A
:10397C00003043EA0424043C9DF90230002B00DBA8
:10398C000024B44200D900242946A0B2FFF726FF38
:10399C000F4B1B889D1EADB2B3F59A5F01D145F656
:1039AC00FC750121FF20FFF7EBFEE9B20620FFF7C3
:1039BC00E7FE290A0720FFF7E3FE701E844203D9B5
:1039CC00002002E0002000E0204602B070BD00BFE5
:1039DC00A00A002038B504460D46002230216C2088
:1039EC00FFF7E0FE30210020FFF7CAFE0021012086
:1039FC00FFF7C6FEE1B20220FFF7C2FEC4F30721B7
:103A0C000320FFF7BDFE2946A0B2FFF705FF0321F7
:103A1C00FE20FFF7B5FE38BD08B5FFF7D5F908BD98
:103A2C00352303700123437081700330704700BF4E
:103A3C0003463622027004224270034A1068C3F80F
:103A4C000200981D704700BFC00A00203723037086
:103A5C000323437001228270C37006230371053067
:103A6C00704700BFFF2303700130704703463222BA
:103A7C00027004224270034A1068C3F80200981DB9
:103A8C00704700BFC80A002010B40346014400244C
:103A9C002EE01A78332A24D006D8032A10D0062A0E
:103AAC0013D0012A21D106E0362A15D0FF2A21D0C5
:103ABC00352A1AD10EE0D3F80200104A906214E0B5
:103ACC00D3F802000D4A10630FE0D3F802000B4A42
:103ADC00D0620AE09C7808E0D3F80200074AD06173
:103AEC0003E0D3F80200054A10625A7802321344FC
:103AFC008B42CED3204610BC704700BFA40A0020D6
:103B0C002DE9F8430446012303704370284B9A694E
:103B1C0082700027C770274A1068606027814FF0B9
:103B2C008009A4F80A90244A1268E2602761676150
:103B3C00A7619D692A46596904F11C0001F0EDFB4F
:103B4C0005F118002044C5F110023946043001F08B
:103B5C00EFFB04F12C0840223946404601F0E8FB0B
:103B6C00164D2E460FCEE06221636263A3630FCE27
:103B7C00E06321646264A3644A46394604F16C0034
:103B8C0001F0D6FB0FCDC4F8F010C4F8F420C4F843
:103B9C00F8300FCDC4F8FC00C4F80011C4F80421AF
:103BAC00C4F80831064B1868C4F8EC00BDE8F8837B
:103BBC00A40A0020F8620008AC0F0020FC62000888
:103BCC001C63000838B50B4C25682846FFF798FF96
:103BDC00032105F1F000FFF723FF1930FFF728FF51
:103BEC00FFF744FFFFF73EFF2368C11A184601F0A8
:103BFC0033F938BD140F002038B50E4D2C68204613
:103C0C00FFF77EFF012104F1F000FFF709FF0A4BDB
:103C1C005B691A68C4F8F6209B88A4F8FA3019304E
:103C2C00FFF714FFFFF71EFF2B68C11A184601F0AF
:103C3C0013F938BD140F0020A40A002010B5114B45
:103C4C001C682378022B17D104220F49A01801F00D
:103C5C0055FB98B90D4B9A69596904F11C0001F098
:103C6C004DFB68B92069094B5862094B198804F15E
:103C7C00F000FFF709FF10BD002010BD002010BDA3
:103C8C00002010BD140F0020F8620008A40A0020C8
:103C9C00000F0020F0B583B04A4B01221A704FF48C
:103CAC007A721A8201E0FEF7D5F8464B1B78032B8B
:103CBC00F9D14548FFF75CFC424CA08C00F092F91E
:103CCC000546A08C00F08EF90646E08C00F08AF9CF
:103CDC000746E08C00F086F9C0B20090C7F30F23C2
:103CEC00F2B2C5F30F213948FFF71EFC384BA28CFA
:103CFC001A80E28C5A80208D00F074F90546208DD4
:103D0C0000F070F90646608D00F06CF90746608D86
:103D1C0000F068F9C0B20090C7F30F23F2B2C5F3FC
:103D2C000F212C48FFF700FC2B4B228D1A80628D43
:103D3C005A80A08D00F056F90546A08D00F052F97E
:103D4C000646E08D00F04EF90746E08D00F04AF98A
:103D5C00C0B20090C7F30F23F2B2C5F30F211F4876
:103D6C00FFF7E2FB208E00F03DF90546208E00F0B7
:103D7C0039F90646608E00F035F90746608E00F082
:103D8C0031F9C0B20090C7F30F23F2B2C5F30F2183
:103D9C001348FFF7C9FB134B228E1A80628E5A8090
:103DAC00208C00F01FF90504608C00F01BF9411900
:103DBC000D48FFF7B9FB10220C4B1A70012003B011
:103DCC00F0BD00BFA40A002020630008386300087F
:103DDC00AC0F002054630008A80F0020706300088B
:103DEC008C630008A40F0020AC6300080C0F0020AB
:103DFC0010B5194B1B7813F0020F0ED0FFF71EFFF6
:103E0C0002280AD1154C02232370FFF7DBFE218A0E
:103E1C0004F1080001F044FA17E00F4B1B7813F083
:103E2C00020F07D0FFF70AFF052803D103220B4B23
:103E3C001A700AE0094B1B78022B06D0FFF7DCFE48
:103E4C000648018A083001F02BFA4FF47A72034BC2
:103E5C001A82002010BD00BF0C0F0020A40A002005
:103E6C0010B582B00B4C6061A161002323704FF63A
:103E7C00FF73ADF80430ADF806304FF4864101A85D
:103E8C0000F096FF606010B14FF48843838002B05D
:103E9C0010BD00BFA40A002008B5FFF7A9FF08BD9C
:103EAC0010B4013A0A440BE00C784B7803EB042372
:103EBC009BB2184480B2834201D9013080B20231E6
:103ECC009142F1D307D10B781B02184480B2834284
:103EDC0001D9013080B210BC704700BF70B4C578F6
:103EEC000D44EDB2134CE57083780E0A3344DBB20B
:103EFC00A37042786270007820709CB2A64206D9FA
:103F0C000132D2B20B4C62700AB901302070C9B2C6
:103F1C008D420CDA0133DBB2064A93703BB953780D
:103F2C000133DBB2537013B913780133137070BCC7
:103F3C00704700BF080F002010B5094C23680146DC
:103F4C0003F10800FFF7CAFF2368064A11781972BB
:103F5C005178597291789972D278DA7210BD00BF8B
:103F6C00180F0020080F00200022194B1A7006E0D1
:103F7C000021184A22F813100133154A1370144B00
:103F8C001B78032BF4D90022114B1A7007E0124A4C
:103F9C0002EB43120021517601330D4A13700C4B86
:103FAC001B78032BF3D94FF480620C4B1A80002240
:103FBC00074B1A7007E00A4A02EB031200219180AA
:103FCC000133034A1370024B1B78032BF3D9704750
:103FDC00E20A00209C0F00201C0F0020E00A0020A9
:103FEC009C130020030A43EA002080B2704700BFF4
:103FFC0008B5142205490020FFF752FF10B1FFF756
:10400C00F1FF08BD4FF6FF7008BD00BFBE0F0020CA
:10401C0038B50D4D2C7C6B7C03EB0424143CA4B202
:10402C002044082205F11A0180B2FFF739FF22461D
:10403C0005F12201FFF734FF10B1FFF7D3FF38BDB4
:10404C004FF6FF7038BD00BFB00F002008B506203A
:10405C00FFF7DEFF08BD00BF08B51120FFF7D8FF42
:10406C0008BD00BF70B5A44B1C68042800F09781F4
:10407C00A24BA34A1360A34A1360032810D1637E9A
:10408C0003F00F03032B40F00D86238A002B40F026
:10409C00098608229C4B1A70FDF766FE00F0C5BC21
:1040AC0002287BD1994AD3780133DBB2D37063B940
:1040BC0093780133DBB293703BB953780133DBB2A5
:1040CC00537013B91378013313700023904A138083
:1040DC00904A1380637E072B01D0052B0AD1A37E57
:1040EC000133DBB2A3761E2B40F0DC850023637614
:1040FC0000F0D8BD002B00F0D585228A002A41D0D3
:10410C00A27E511EA176002A40F0CC85E27E082AC0
:10411C0005D0591EC9B201290ED8052A0CD100238D
:10412C0063768022784B1A70FDF71EFE14227A4BB0
:10413C0083F82F2000F047BD042A03D803219140B7
:10414C00C9B200E03021A1760132E27603F00F0310
:10415C00013B072B00F2A685DFE813F0A60208004E
:10416C000D002304A4052304A405230400226A4B98
:10417C0083F82F209CE20422634B1A70FDF7F4FDA8
:10418C0000F088BC03F00F03032B40F08B85082252
:10419C005D4B1A70FDF7E8FD00F047BC052817D100
:1041AC005E4B1B689B88002B00F07C850023524AD9
:1041BC0013605B4A52490A6052490A60554A13809F
:1041CC00534A13800822504B1A70FDF733FEE6E079
:1041DC00514B9B7B452B40F065854F4A157C537C9E
:1041EC0003EB05214A4A1288914200F35B858DB29C
:1041FC00474B1D80484B1B7D13F03F0F40F0528501
:10420C00454B5B7D002B40F04D85464B1C880CB913
:10421C005B885BB3404BDB7D112B1BD13E4BDB8BA7
:10422C004FF6FF72934205D13B4A118C4FF6FF7249
:10423C0091424DD03C4A128864EA0202934209D161
:10424C00354B1A8C374B5B883749498863EA010335
:10425C009A423DD0304BDB8B9C4240F023852E4B59
:10426C001A8C304B5B889A4240F01C85FFF7C0FEDD
:10427C004FF6FF73984240F01585274BDB7D062BDC
:10428C0000F0CD80112B23D0012B40F00B85224B5D
:10429C0093F82230082B40F005851F4B002283F841
:1042AC0022209B8C4FF6F672934203D909331A4A9B
:1042BC00938402E00833184A9384174B5A8BDA83A1
:1042CC009A8B1A845C83174A52889A8300F0E6BC56
:1042DC001C3D0F4B1D80124B094A136033F8023CF6
:1042EC0033B1FFF7B9FE4FF6FF73984240F0DA8412
:1042FC000E4A0A4B1A603EE0180F0020E60F002011
:10430C00140F0020040F00200C0F0020DC0A0020EA
:10431C00000F00209A130020B00F0020100F002077
:10432C00DA0F0020AC0F0020A80F00209C130020F7
:10433C009A88EAB18B49898C8A4219D1DA881AB1E8
:10434C008849498C8A4213D11A880AB95988C9B14B
:10435C004FF6FF718A4202D15888884212D08149A7
:10436C00498B8A4204D17F4A918B5A88914209D059
:10437C0010337D4A13607C4B1B687C4A9342D7D325
:10438C0000F090BC00237A4A13600221794A117024
:10439C0079497A4A11607A4A1380FDF74BFD784BC4
:1043AC001B88002B00F07E8403F11C0292B275492D
:1043BC000A806C4C110A217462746B4A1268117A6F
:1043CC00A1751121E17508339BB2190A41EA032347
:1043DC00E384002384F8283084F82930938863849C
:1043EC00D388A384684B198861835B88A383138863
:1043FC00E3835388238404F13602644B1A60FFF77D
:10440C002BFEC04380B22085002840F032844FF050
:10441C00FF3284F8282084F8292000F02ABCFFF70A
:10442C0015FE4FF6FF73984240F03C84584C17E051
:10443C00617EA1B14B4B9A8CA3889A420FD1494B08
:10444C005A8CE3889A420AD1464B5A8B23889A425B
:10445C0005D1444B9A8B63889A4200F045812034F5
:10446C004C4B9C42E4D93F4B93F82F3003F03F0365
:10447C00022B14D13B4B9B8C99B2474A13800022E0
:10448C00464B1A7007E0464A32F8132091425BD033
:10449C000133424A1370414B1B78032BF3D9314B38
:1044AC0093F82F3013F0040F40F0FC832D4B1422A3
:1044BC0083F82F202821334A1180502283F82E2094
:1044CC0093F8290093F82D2083F8292093F82810CD
:1044DC0093F82C2083F8282083F82C1093F82720AD
:1044EC0093F82B4083F8274083F82B2093F8264031
:1044FC002A4D2C7093F82A5083F8265083F82A40C2
:10450C000130C0B283F82D0068B94B1CDBB21549E1
:10451C0081F82C303BB9531CDBB281F82B3013B92A
:10452C00013481F82A400F4B5A8C1B490A80998C14
:10453C0059849A845A8BDA839A8B1A84124A11887A
:10454C00598352889A837FE30024144B1C7039E002
:10455C000F4A02EB4312527E22BB0D4C04EB431468
:10456C0034E000BFB00F0020100F0020DC1300203F
:10457C00180F00200C0F0020DA0F0020040F002071
:10458C009A130020000F0020AC0F0020140F002005
:10459C001C0F00207C0F0020D80A0020E20A00200B
:1045AC009C0F0020072A0AD134B1A64A02EB431211
:1045BC00917EA27E914202D9A24C04EB43140133AA
:1045CC00A14A1370A04B1B78032BC1D9002C00F00F
:1045DC0069839E4B1C600323A37623760023A3756B
:1045EC000422E275E3769A4DAB8CA3806B8CE3804E
:1045FC006B8B2380AB8B638001206076954B1A7894
:10460C0022735A7862739A78A273DB78E3732082F0
:10461C0095F82930E37295F82830A37295F8273075
:10462C00637295F826302372FFF786FC95F82E00FE
:10463C0000F0F003502B37DD0022834B1A702BE077
:10464C0003F13601824D695C71B3012903D1013349
:10465C007D4A137020E0022916D103F137017C4DFD
:10466C00695C042910D102F13803E85C3932AB5C87
:10467C0043EA0023784A1380B3F5007F28BF4FF438
:10468C0000736382A3820FE003F1370270498A5CE6
:10469C0052B113446C4A13706B4B1B781A460109C8
:1046AC000539B3EB810FCBDB1022694B83F82F203C
:1046BC00674D95F82F3043F0020385F82F3067488B
:1046CC00FEF756FF022385F83630042285F8372092
:1046DC0085F83830002385F839302C22604B1A804D
:1046EC00602385F82E3075E2584B1C6000225D4B20
:1046FC001A70574B93F82F2012F0040F07D0002399
:10470C0063762022574B1A70FDF72EFBCAE2504BF2
:10471C0093F82E301B099B004B480370EB1A143B8B
:10472C009BB24F48038001F00F01022903D102F024
:10473C003F0112290FD013B912F0030F0BD0444BC9
:10474C00D98C2389994240F03A82414B198D638967
:10475C00994240F0348212F0100F47D0218A002980
:10476C0044D004F10C00FFF7B9FB394B93F82A3015
:10477C003D4A1078834239D1354B93F82B30517820
:10478C008B4233D1324B93F82C30927893422DD10B
:10479C002F4B93F82D50344BDB789D4226D1207350
:1047AC006173A273E373E37ECBB9237EA27E9A1A64
:1047BC00D2B2A17DA2EBD102D2B253B21144C9B292
:1047CC00A175002B01DA524253B2E07DA3EB9002AB
:1047DC00D2B20244D3B2E37503EBD10323760122A8
:1047EC00204B1A70237EA37600232382617E01F076
:1047FC000F03013B072B00F25582DFE813F0080092
:10480C003900AC008B01BA01D601E0016A01154BED
:10481C001B7813F0010F00F04582032363764022CE
:10482C00104B1A70002323820D4B188820B14222A2
:10483C000C4B1A70FFF780FB00220C4B1A80FDF713
:10484C0093FAF2E01C0F0020E20A0020180F00205F
:10485C00B00F0020DC0A0020D80A0020CC6300082E
:10486C00000F00200C0F0020080F00209A130020CE
:10487C009F4B1B7813F0010F63D09E4B93F82F3096
:10488C0003F03F03122B5CD19A4B93F82E0000F0EF
:10489C00F003502B37DD0022974B1A702BE003F1FD
:1048AC003601944D695C71B3012903D10133924AED
:1048BC00137020E0022916D103F137018D4D695C8C
:1048CC00042910D102F13803E85C3932AB5C43EABD
:1048DC0000238A4A1380B3F5007F28BF4FF400737E
:1048EC006382A3820FE003F1370282498A5C52B1E2
:1048FC001344814A1370804B1B781A460109053901
:10490C00B3EB810FCBDB032363767A4B93F8262032
:10491C00227293F82720627293F82820A27293F8DF
:10492C002930E3720120FFF707FB4222704B1A700B
:10493C0000232382724A1380724A1380FDF714FA03
:10494C0073E020226A4B1A70FDF70EFA6E4B1B684F
:10495C0000225A76A3E5674B93F82F3013F0010F22
:10496C0024D011F0100F21D1238A002B40F09A8112
:10497C00634D2888013080B2FFF7DEFA5C4A137869
:10498C0043F0100313702A881AB143F00203584AFB
:10499C001370FDF7E9F901232382082363760023C2
:1049AC00E3761122534B83F82F200CE113F0200FE8
:1049BC0010D0504890F834301A0290F8353043EA51
:1049CC000200524D2E68304428604D481343028833
:1049DC00D31A03804A4B188848B111F0100F06D136
:1049EC00434A137843F002031370FFF7A5FA414AC8
:1049FC0092F8301092F8313003EB01239BB23F4A0E
:104A0C001380A28A934200D80BB93C4B1A803B4BC3
:104A1C001B886382364B1B7813F0030F00F0428126
:104A2C000022384B1A80FDF79FF9314B1B7813F09D
:104A3C00200F08D00023334A1380637614222D4BA9
:104A4C0083F82F20BFE013F0100F0CD000232D4A59
:104A5C0013800122228204226276E3761122254BF6
:104A6C0083F82F20AFE0274A12888AB113F0010F88
:104A7C0001D000232382238A43B9638A9A4201D945
:104A8C00204A13801F4B1B88238201E01D4A138090
:104A9C000023E3761E4B1A681C4B1A60194B1B88BB
:104AAC004BB1238A3BB12833154A13801822114B82
:104ABC0083F82F208AE00E4B1B7813F0020F00F0C6
:104ACC00F18028220E4B1A8010220A4B83F82F20DB
:104ADC007CE0074B1B7813F0010F00F0E380002300
:104AEC0063761022024B1A70FDF73EF9DAE000BF34
:104AFC000C0F0020B00F0020E20A0020D80A002082
:104B0C00000F00209A130020180F0020140F002013
:104B1C00040F0020664B188808B1FFF70DFA654B9F
:104B2C0093F82F3013F0010F15D0634B1B7813F053
:104B3C00010F05D0072363760023A376238201E0BF
:104B4C00062363760120FFF7F7F910225A4B1A70EF
:104B5C00FDF70AF933E0584B1B7813F0010F04D022
:104B6C0005236376002323829CE0514B1B8833BBC7
:104B7C0098E04F4B188808B1FFF7DEF94D4B93F8CE
:104B8C002F3013F0010F0CD0072363760023A3768C
:104B9C000120FFF7D1F91022474B1A70FDF7E4F80A
:104BAC000DE0434B1B8853B97CE0434B1B7813F04F
:104BBC00010F77D0072363760023A37672E01022CF
:104BCC003C4B83F82F202822394B1A805022394B2A
:104BDC0083F82E20227A374B83F82A20627A83F8C6
:104BEC002B20A27A83F82C20E27A83F82D20227BCA
:104BFC0083F82620627B83F82720A27B83F8282069
:104C0C00E27B83F829200622DA75A2885A84E2888E
:104C1C009A842A4A1188598352889A832288DA8383
:104C2C0062881A84637E13F0100F06D0214B002289
:104C3C0083F8312083F8302006E01E4B022283F8E3
:104C4C003020002283F831201A4C4023A375184BD6
:104C5C001B881A0A22746374002384F8353084F894
:104C6C00343084F8323084F83330FFF7EFF9C04336
:104C7C006086104C4523A3730022E2736275227583
:104C8C000F490B8801339BB20B80190AA174E37492
:104C9C0022766276FFF7ACF9C04320830022064BE4
:104CAC001A7070BD0023024A1380034A137070BD42
:104CBC00000F0020B00F00200C0F0020AC0F0020C4
:104CCC00DA0A0020F8B505460E46354A138801333A
:104CDC009BB21380B3F5FA4F03D34FF48052304B91
:104CEC001A8000222F4B1A7011E02F4B03EB441348
:104CFC005B7E4BB12C4B03EB44139F88284B1888DD
:104D0C00FFF770F98742E0D00134264B1C70254B1D
:104D1C001C78032CE9D900241C7012E0224A02EB07
:104D2C004312517E91B1072908D124B1907EA17E06
:104D3C00884202D802E0144600E014460133194AB6
:104D4C001370184B1B78032BE8D900E0144624B3DE
:104D5C0002236376154B1A7822735A7862739A7809
:104D6C00A273DB78E3734FF400736382A382012296
:104D7C0022820023E376A27603222276A3751023E7
:104D8C00E375074B1888FFF72DF9A080E6802B8878
:104D9C0023806B8863802046F8BD0020F8BD00BFDF
:104DAC00E00A0020E20A00201C0F0020DC0A002090
:104DBC00F8B505460E46254A138801339BB213807D
:104DCC00B3F5FA4F03D34FF48052204B1A800022D4
:104DDC001F4B1A700CE01F4B03EB04139F881B4BEB
:104DEC001888FFF7FFF88742E5D00134184B1C7088
:104DFC00174B1C78032CEED900221A700BE0154AC5
:104E0C0002EB031292881AB9124800EB031007E068
:104E1C0001330F4A13700E4B1B78032BEFD9002074
:104E2C0088B10A4B1A88130A43EA02238380C6808E
:104E3C0015B90023036003E02B8803806B88438043
:104E4C0040230372F8BD0020F8BD00BFE00A00202B
:104E5C00E20A00209C13002008B58AB2064B1A8087
:104E6C00002907DD054B1B68834203D00146184619
:104E7C0000F053FA08BD00BF9A130020040F002065
:104E8C00F0B400223A4B1A701EE03A4D5A001A4404
:104E9C0094002E192C5BA4B103EB4305AA00354DED
:104EAC002A4452886AB10588AC420AD14488A2428D
:104EBC0007D10C687460898831812F4A1278B272DC
:104ECC0054E001332A4A1370294B1B78072BDCD989
:104EDC000022274B1A700FE0264D5A001A449400FA
:104EEC002E192A5B2AB903EB4304A2002A445288E8
:104EFC0032B101331E4A13701D4B1B78072BEBD9B3
:104F0C00082B28D100231D4A13701D4A1370184A10
:104F1C00137013E0184A147803EB4305AA00154DDF
:104F2C002A44927AA61A154D2D78AE4203DD134A07
:104F3C001670134A137001330D4A13700C4B1B7807
:104F4C00072BE7D90E4B1B78094A137003EB43036D
:104F5C009A00084E16440268334643F8042B0A683C
:104F6C0072608A889A80044B1B78B372F0BC7047CD
:104F7C00EA0A0020EC0A00204D0B0020EB0A00206E
:104F8C004C0B00200022084B1A7008E003EB430185
:104F9C008A000020054988500133034A1370024BE4
:104FAC001B78072BF2D97047EA0A0020EC0A002084
:104FBC0010B4144B1C780134E4B21C700022124B58
:104FCC001A7019E011485A001A4491004218415ABB
:104FDC0052880A430DD003EB43018A000244927AB3
:104FEC00A21A772A05DD03EB43018A00002007494A
:104FFC0088500133044A1370034B1B78072BE1D9FB
:10500C0010BC70474D0B0020EA0A0020EC0A00206F
:10501C0008B50E4A13880E3B13800D4B598B0D4B64
:10502C001B880D4A12884B401A420DD1084B998BA4
:10503C00084B5B88084A52884B401A4204D10748F7
:10504C0001461430FFF71CFF08BD00BF000F002005
:10505C00B00F0020AC0F0020A80F0020B60F0020CE
:10506C0010B5324B1B88292B03D800222F4B1A80EA
:10507C0010BD00222D4B1A802D4B9B8AB3F5807FDF
:10508C0003D0B3F5007F3FD010BD294BDA8C294BF0
:10509C001B889A4249D1264B1A8D264B5B889A4223
:1050AC0043D1254C2146A01DFFF7EAFE002204F84F
:1050BC00022C022204F8012C2168C4F80A10A188E1
:1050CC00E1811E49086820608988A18044F8100C91
:1050DC0024F80C1CD4F80A1044F8161CE28924F8A5
:1050EC00122CE288228222896282124A1188E18083
:1050FC0052882281082204F80A2C062204F8092C72
:10510C002A220A4B1A8010BD094BDA8C094B1B88DA
:10511C009A420AD1064B1A8D064B5B889A4204D1EF
:10512C00054801460630FFF7ABFE10BD000F00200E
:10513C00B00F0020AC0F0020C60F0020E40A0020A6
:10514C0030B44C4BD98B8AB24FF6FF739A420CD1C8
:10515C00484B188C4FF6FF73984206D1454B464A84
:10516C001068186092889A8072E0444B1B884448FF
:10517C0000885340184209D13E4B1A8C94B23F4BD5
:10518C005B883F4840886340184206D03D4B3E4AFE
:10519C001188198052885A8002E03A4B19805A8043
:1051AC0000223A4B1A7016E039485A001A44910002
:1051BC004518344A1488425A944209D1314A5088CD
:1051CC0003EB43018A0032490A445288904206D0CC
:1051DC0001332E4A13702D4B1B78072BE4D9082B67
:1051EC0030D1244B4FF0FF321A609A8000221A62A1
:1051FC009A8428490868C3F8060089885981C3F83D
:10520C00160059831F490888D884498819851B4979
:10521C00088898834988D9831A75012159759A731E
:10522C00D973082119745A7406229A740422DA74F8
:10523C00197306225A733633174A13602A22174BF6
:10524C001A8014E00B4B55F8042F1A60AA889A8028
:10525C00084B104A1168C3F8061092885A8108222C
:10526C001A7300225A730D4A13880E33138030BC04
:10527C00704700BFB00F0020E8630008AC0F00209F
:10528C00A80F0020500B0020A40F0020EA0A0020D9
:10529C00EC0A0020E40A0020140F0020000F00206C
:1052AC0010B504464160FEF7B7FB206010BD00BF8F
:1052BC000E4B70B51E460E4C0025E41AA410A542E8
:1052CC0004D056F8253098470135F8E700F0E4FB98
:1052DC00084B094C1E46E41AA4100025A54204D024
:1052EC0056F8253098470135F8E770BDF063000893
:1052FC00F0630008F0630008F463000810B501398E
:10530C000244904207D010F8013B11F8014FA34220
:10531C00F7D0181B10BD002010BD10B5431E0A4459
:10532C00914204D011F8014B03F8014FF8E710BD7E
:10533C0003460244934202D003F8011BFAE770477C
:10534C0038B5124B05461C68A36BD3B9182000F076
:10535C006DF943F20E33A06303804AF6CD334380DC
:10536C0041F2342383804EF26D63C3804DF6EC63BF
:10537C000381052343810B23838101220023C0E990
:10538C000423A36B00221D615A6138BDEC0500207B
:10539C00194B10B51C68A36BD3B9182000F046F953
:1053AC0043F20E33A06303804AF6CD33438041F2BF
:1053BC00342383804EF26D63C3804DF6EC6303811E
:1053CC00052343810B23838101220023C0E904239D
:1053DC00A16B0A4C0B6948695C43094A02FB00400B
:1053EC00A3FB02230132034443F10003C1E904236C
:1053FC0023F0004010BD00BFEC0500202DF45158E7
:10540C002D7F954C2DE9F8438946254F064600F033
:10541C0031FBBB68DFF894805D68A8F1110425F0BE
:10542C0003052C44C9EB0404B4FBF8F4013C08FB61
:10543C0004F4444505DA304600F01DFB0020BDE8BD
:10544C00F8830021304600F017FBBB682B449842D0
:10545C00F1D16142304600F00FFB013010D1002138
:10546C00304600F009FBBA68831A0F2BE3DD0D49B7
:10547C0043F0010309685360401A0B490860DAE7EE
:10548C00BB68094A2D1B45F001055D601368304669
:10549C001C1B146000F0EFFA0120BDE8F88300BF7C
:1054AC00F0050020FC090020600B002080000000AB
:1054BC002DE9F04104468846002900F0AD8000F04B
:1054CC00D9FA58F8042C554D22F00100A8F1080324
:1054DC001F18A9687E688F4226F0030602F00102AD
:1054EC001BD130443AB958F8082C9B1A99681044CF
:1054FC00DA68CA60916040F001025A60AB60484BB8
:10550C001B68984204D3474B20461968FFF77AFF73
:10551C002046BDE8F04100F0AEBA7E607AB958F88A
:10552C00081C05F1080E5B1A08449968714508D0EF
:10553C00D3F80CE0C1F80CE0CEF8081002E0002221
:10554C0000E00122B9194968C9070ED43044B96882
:10555C0042B9354EB14205D16B612B610122D96044
:10556C00996002E0FE68CE60B16040F001015960C4
:10557C001850002ACCD1B0F5007F12D2C00881108F
:10558C00012202FA01F16A6801300A436A6055F897
:10559C00301005EBC002083ADA60996045F83030FB
:1055AC0038E0420A042A02D88209383215E0142A5B
:1055BC0001D85B3211E0542A02D8020B6E320CE097
:1055CC00B2F5AA7F02D8C20B773206E040F25451F2
:1055DC008A429ABF820C7C327E22511C55F83110C3
:1055EC0005EBC2068E420D4F0BD10121921001FA30
:1055FC0002F2796811437960314608E089688E427D
:10560C0004D04A6822F003029042F7D3CE68DE60E1
:10561C009960B360CB607BE7BDE8F081F0050020BA
:10562C00F80900205C0B0020F8050020024B014615
:10563C00186800F003B800BFEC0500202DE9F04F0E
:10564C0001F10B04162C85B0814603D934F0070404
:10565C0001D502E010248C4203D20C23C9F800308F
:10566C00E7E1484600F006FAB4F5FC7F9D4D17D2F1
:10567C0004F108022A445668A2F108018E424FEA4E
:10568C00D40302D1D668B24208D07368F268B1680C
:10569C0023F00303CA60334491602FE002333DE0F2
:1056AC00630A1AD0042B02D8A309383318E0142B40
:1056BC0001D85B3314E0542B02D8230B6E330FE06C
:1056CC00B3F5AA7F02D8E30B773309E040F25452CA
:1056DC00934204D8A30C7C3302E03F2300E07E23EA
:1056EC005A1C05EBC202A2F1080056680CE0002916
:1056FC00F16808DBB368D9608B60B3185A6842F064
:10570C0001025A60A0E10E46864206D0726822F071
:10571C000302111B0F29EADD013B0133714A2E698B
:10572C0002F10807BE42394679D0706820F00300B8
:10573C00C4EB000EBEF10F0F0DDD331944F0010464
:10574C007460536113614EF00102DF609F605A6018
:10575C0043F80EE078E1BEF1000F5761176105DBED
:10576C003044436843F0010343606DE1B0F5007FC2
:10577C0015D2C0084FEAA00E012707FA0EFE576893
:10578C0001304EEA0707576052F830E002EBC007D1
:10579C00083FF760C6F808E042F830603DE0420A86
:1057AC00042A02D88209383215E0142A01D85B3257
:1057BC0011E0542A02D8020B6E320CE0B2F5AA7F2B
:1057CC0002D8C20B773206E040F25457BA429ABF65
:1057DC00820C7C327E22571C55F8377005EBC20EBA
:1057EC00BE45DFF800C10DD10120921000FA02F283
:1057FC00DCF804001043CCF80400724609E0BF68E2
:10580C00BE4504D07A6822F003029042F7D3BE461C
:10581C00FA68F260C6F808E09660CEF80C600120D9
:10582C009A1000FA02F2686882425DD8024206D1F0
:10583C0023F003035200024203F10403FAD005EBF8
:10584C00C308C2469C46DAF80C6056452CD07068EA
:10585C00F76820F00300C4EB000EBEF10F0F11DD52
:10586C00331944F00104746056F8082FD760BA60FD
:10587C004EF001026B612B61D96099605A6043F85C
:10588C000EE00BE0BEF1000F0CDB33185A6842F04F
:10589C0001025A6056F8083FDF60BB60484600F0D2
:1058AC00EAF8D5E03E46D0E70CF1010C1CF0030FF2
:1058BC000AF1080AC7D1980704D16B6823EA0203DE
:1058CC006B6004E058F80809013B8045F3D0686828
:1058DC005200824208D83AB163460242AFD1043337
:1058EC005200FAE7F0050020D5F808B0DBF80460A8
:1058FC0026F00306B44203D8331B0F2B00F39B8016
:10590C00554A56491268086802F11008544A013089
:10591C000191A0441FBF02F1FF318844514201EABA
:10592C0008080BEB0603414648460392029300F02D
:10593C00A3F8421C07466FD0029B039A834201D9FD
:10594C00AB4569D1DFF824A1BB42DAF80000DFF8DF
:10595C0020C14044CAF8000008D113EA0C0F05D14D
:10596C00AB68464446F001065E6049E00199D1F807
:10597C0000E0BEF1FF3F15BFFB1A384B1B181F6030
:10598C0018BFCAF8003017F007031CBFC3F1080397
:10599C00FF18B8441A4408EA0C08C8EB0208414640
:1059AC00484600F069F8431C04BF38464FF0000825
:1059BC00DAF80030C21B4244434442F00102AB45CA
:1059CC00AF60CAF800307A601AD00F2E02D80123CB
:1059DC007B6021E0DBF804300C3E26F0070603F078
:1059EC0001033343CBF8043005220BEB06030F2ED7
:1059FC005A609A6004D90BF108014846FFF758FD2C
:105A0C00184ADAF8003011688B4288BF1360164AC6
:105A1C0011688B4288BF1360AB685A6822F003028E
:105A2C009442A2EB040301D80F2B04DC484600F08F
:105A3C0022F800260CE0AE6844F0010243F00103AA
:105A4C0034447260AC606360484600F014F8083669
:105A5C00304605B0BDE8F08F5C0B0020FC0900203F
:105A6C0080000000580B0020540B0020600B00201D
:105A7C007F0000007047704738B5064C0023054680
:105A8C0008462360FDF7DAFB431C02D1236803B1FF
:105A9C002B6038BDDC130020F8B500BFF8BC08BC87
:105AAC009E467047F8B500BFF8BC08BC9E467047D0
:105ABC00810B000C0120FFFF000E1008810A00135F
:105ACC0001040275530E0C00C000021E09081F00D1
