:020000040800F2
:1000000000500020F93500084D3600085D36000824
:100010006D360008713600087536000800000000D3
:100020000000000000000000000000007936000819
:100030007D36000800000000813600088536000883
:100040004936000849360008493600084936000894
:100050004936000849360008493600084936000884
:100060004936000849360008493600084936000874
:100070004936000849360008493600084936000864
:100080004936000849360008493600084936000854
:100090004936000849360008493600084936000844
:1000A0004936000849360008493600084936000834
:1000B000C5390008493600084936000849360008A5
:1000C0004936000849360008493600084936000814
:1000D00049360008413D000849360008D93D00086E
:1000E000493600084936000849360008000000007B
:1000F0000000000000000000000000000000000000
:0C01000000000000000000005FF808F1A3
:10010C0010B5054C237833B9044B13B10448AFF345
:10011C0000800123237010BD600B00200000000044
:10012C003069000808B5034B1BB103490348AFF312
:10013C00008008BD00000000640B0020306900083E
:10014C00034613F8012B002AFBD1181A013870470B
:10015C0080F0004002E000BF81F0004142001FBF70
:10016C005FEA410392EA030F7FEA226C7FEA236C79
:10017C006AD04FEA1262D2EB1363C1BFD21841406E
:10018C0048404140B8BF5B42192B88BF704710F004
:10019C00004F40F4000020F07F4018BF404211F0A7
:1001AC00004F41F4000121F07F4118BF494292EA0F
:1001BC00030F3FD0A2F1010241FA03FC10EB0C003B
:1001CC00C3F1200301FA03F100F0004302D54942C8
:1001DC0060EB4000B0F5000F13D3B0F1807F06D375
:1001EC0040084FEA310102F10102FE2A51D2B1F16D
:1001FC00004F40EBC25008BF20F0010040EA030062
:10020C007047490040EB000010F4000FA2F101020E
:10021C00EDD1B0FA80FCACF1080CB2EB0C0200FA98
:10022C000CF0AABF00EBC25052421843BCBFD040E6
:10023C001843704792F0000F81F4000106BF80F460
:10024C0000000132013BB5E74FEA41037FEA226C23
:10025C0018BF7FEA236C21D092EA030F04D092F0EE
:10026C00000F08BF0846704790EA010F1CBF002022
:10027C00704712F07F4F04D1400028BF40F000407F
:10028C00704712F100723CBF00F50000704700F09F
:10029C00004343F0FE4040F4000070477FEA2262C6
:1002AC0016BF08467FEA23630146420206BF5FEA97
:1002BC00412390EA010F40F4800070474FF0000397
:1002CC0004E000BF10F0004348BF40425FEA000C5E
:1002DC0008BF704743F0964301464FF000001CE006
:1002EC0050EA010208BF70474FF000030AE000BF5C
:1002FC0050EA010208BF704711F0004302D540429A
:10030C0061EB41015FEA010C02BF8446014600200B
:10031C0043F0B64308BFA3F18053A3F50003BCFA26
:10032C008CF2083AA3EBC25310DB01FA02FC6344D3
:10033C0000FA02FCC2F12002BCF1004F20FA02F2DA
:10034C0043EB020008BF20F00100704702F12002CD
:10035C0001FA02FCC2F1200250EA4C0021FA02F22E
:10036C0043EB020008BF20EADC7070474FF0FF0C33
:10037C001CEAD0521EBF1CEAD15392EA0C0F93EA2E
:10038C000C0F6FD01A4480EA010C400218BF5FEAD0
:10039C0041211ED04FF0006343EA501043EA511143
:1003AC00A0FB01310CF00040B1F5000F3EBF49003D
:1003BC0041EAD3715B0040EA010062F17F02FD2A41
:1003CC001DD8B3F1004F40EBC25008BF20F0010024
:1003DC00704790F0000F0CF0004C08BF49024CEA3B
:1003EC00502040EA51207F3AC2BFD2F1FF0340EACD
:1003FC00C250704740F400004FF00003013A5DDC3E
:10040C0012F1190FDCBF00F000407047C2F100027E
:10041C00410021FA02F1C2F1200200FA02FC5FEA6B
:10042C00310040F1000053EA4C0308BF20EADC70B5
:10043C00704792F0000F00F0004C02BF400010F427
:10044C00000F013AF9D040EA0C0093F0000F01F0D4
:10045C00004C02BF490011F4000F013BF9D041EAF6
:10046C000C018FE70CEAD15392EA0C0F18BF93EAF8
:10047C000C0F0AD030F0004C18BF31F0004CD8D122
:10048C0080EA010000F00040704790F0000F17BFA9
:10049C0090F0004F084691F0000F91F0004F14D0EF
:1004AC0092EA0C0F01D142020FD193EA0C0F03D147
:1004BC004B0218BF084608D180EA010000F000404A
:1004CC0040F0FE4040F40000704740F0FE4040F425
:1004DC00400070474FF0FF0C1CEAD0521EBF1CEAC4
:1004EC00D15392EA0C0F93EA0C0F69D0A2EB0302E2
:1004FC0080EA010C49024FEA402037D04FF080537C
:10050C0043EA111143EA10130CF000408B4238BF40
:10051C005B0042F17D024FF4000C8B4224BF5B1A4E
:10052C0040EA0C00B3EB510F24BFA3EB510340EA9C
:10053C005C00B3EB910F24BFA3EB910340EA9C004A
:10054C00B3EBD10F24BFA3EBD10340EADC001B01BA
:10055C0018BF5FEA1C1CE0D1FD2A3FF650AF8B425E
:10056C0040EBC25008BF20F0010070470CF0004C6B
:10057C004CEA50207F32C2BFD2F1FF0340EAC25096
:10058C00704740F400004FF00003013A37E792F057
:10059C00000F00F0004C02BF400010F4000F013AB5
:1005AC00F9D040EA0C0093F0000F01F0004C02BFB0
:1005BC00490011F4000F013BF9D041EA0C0195E719
:1005CC000CEAD15392EA0C0F08D142027FF47DAFB2
:1005DC0093EA0C0F7FF470AF084676E793EA0C0FA2
:1005EC0004D14B023FF44CAF08466EE730F0004CA0
:1005FC0018BF31F0004CCAD130F000427FF45CAF30
:10060C0031F000437FF43CAF5FE700BF4FF0FF3C9D
:10061C0006E000BF4FF0010C02E000BF4FF0010CF0
:10062C004DF804CD4FEA40024FEA41037FEA226CB9
:10063C0018BF7FEA236C11D001B052EA530C18BFDB
:10064C0090EA010F58BFB2EB030088BFC81738BF40
:10065C006FEAE17018BF40F0010070477FEA226C2E
:10066C0002D15FEA402C05D17FEA236CE4D15FEA2A
:10067C00412CE1D05DF8040B704700BF844608465E
:10068C006146FFE70FB5FFF7C9FF002848BF10F11F
:10069C00000F0FBD4DF808EDFFF7F4FF0CBF012064
:1006AC0000205DF808FB00BF4DF808EDFFF7EAFFEE
:1006BC0034BF012000205DF808FB00BF4DF808EDA9
:1006CC00FFF7E0FF94BF012000205DF808FB00BF9E
:1006DC004DF808EDFFF7D2FF94BF012000205DF824
:1006EC0008FB00BF4DF808EDFFF7C8FF34BF012031
:1006FC0000205DF808FB00BF42000ED2B2F1FE4FA5
:10070C000BD34FF09E03B3EB126209D44FEA0023D4
:10071C0043F0004323FA02F070474FF0000070479B
:10072C0012F1610F01D1420202D14FF0FF3070473C
:10073C004FF00000704700BFC378FBB1154BDB686E
:10074C00DB43C3F30223C3F104010F22DA404378E5
:10075C0003FA01F1837813400B431B010278DBB2DF
:10076C000D490A4482F800330378580903F01F033B
:10077C00012202FA03F341F82030704703785A093A
:10078C0003F01F03012101FA03F32032024941F85F
:10079C002230704700ED00E000E100E008B50120D8
:1007AC0000F024F9002000F021F908BD82B00023EC
:1007BC000193044B0193019B18440190019B196018
:1007CC0002B07047006C004082B000230193054BCF
:1007DC000193019B18440190019B188880B202B0D0
:1007EC00704700BF006C0040F0B4CB7803F00F02F0
:1007FC00154613F0100F01D08D7815430B78E3B12B
:10080C000668002316E001229A400C8832EA0404A0
:10081C000FD19C000F27A74026EA070605FA04F41F
:10082C002643CC78282C01D1426102E0482C00D11F
:10083C0002610133072BE6D906600B88FF2B1ED90A
:10084C004668002318E003F108040122A2400C883A
:10085C0032EA04040FD19C000F27A74026EA0706B2
:10086C0005FA04F42643CC78282C00D14261CC78CC
:10087C00482C00D102610133072BE4D94660F0BC4F
:10088C00704700BF8368194201D0012070470020D7
:10089C00704700BF01617047416170470AB1016147
:1008AC0070474161704700BF014B1860704700BF33
:1008BC0020000E42084B00221A701A70012802D038
:1008CC00042804D070470122034B1A70704705228C
:1008DC00014B1A70704700BF20100240024A136A85
:1008EC0018431062704700BF00100240014B1860A3
:1008FC00704700BF3C04424210B4294B5B6803F0C4
:10090C000C03042B05D0082B06D013BB254B03601E
:10091C0021E0244B03601EE0214A53685268C3F364
:10092C008343023312F4803F04D11F4A02FB03F3CA
:10093C00036010E01A4A526812F4003F04D01A4ABD
:10094C0002FB03F3036006E0164A02FB03F30360A9
:10095C0001E0144B036012494B68C3F30313134CAF
:10096C00E35CDAB20368D34043604A68C2F3022204
:10097C00A25CD2B223FA02F282604A68C2F3C222AB
:10098C00A25CD2B2D340C3604A68C2F38132084938
:10099C008A5CD2B2B3FBF2F3036110BC704700BFA8
:1009AC000010024000127A0000093D0004000020F3
:1009BC000000002021B1054B9A69104398617047E3
:1009CC00024A936923EA00009061704700100240CC
:1009DC0021B1054BDA691043D8617047024AD369DB
:1009EC0023EA0000D061704700100240014B1860F0
:1009FC00704700BF400442424309012B02D10A4B0D
:100A0C001B6806E0022B02D1074B1B6A01E0064B68
:100A1C005B6A00F01F0023FA00F010F0010F01D008
:100A2C00012070470020704700100240024A536AB0
:100A3C0043F08073536270470010024029B1064A9C
:100A4C0013889BB2184310807047034A1388C04325
:100A5C0080B218401080704700280040034A9388E9
:100A6C009BB243F010039380704700BF00280040F6
:100A7C00034A93889BB223F010039BB29380704778
:100A8C00002800400849088B82B28B8B9BB2088BE4
:100A9C0080B2824204D08B8B9BB243EA00407047F9
:100AAC0043EA0240704700BF0028004010B50446DE
:100ABC00FFF7D4FF220C034B1A83A4B29C83FFF7DD
:100ACC00D7FF10BD0028004010B50446FFF7C6FF45
:100ADC00C4F30342034B1A81A4B29C81FFF7C8FFF5
:100AEC0010BD00BF00280040034B9B8803F020037F
:100AFC009BB2002BF8D0704700280040074A93881F
:100B0C009BB223F008039BB29380044B9B8803F0A9
:100B1C0008039BB2002BF8D0704700BF00280040A0
:100B2C002DE9F041038803F441570D884E888C88D9
:100B3C00B1F806800A89B1F80AC08B89B1F80EE0C9
:100B4C003543254348EA050414434CEA04021A438E
:100B5C004EEA02033B430380838B9BB223F4006376
:100B6C009BB283830B8A0382BDE8F08129B1038891
:100B7C009BB243F040030380704703889BB223F081
:100B8C0040039BB20380704703889BB2214A90427A
:100B9C0012D002F5006290420ED0B0F1804F0BD013
:100BAC00A2F59832904207D002F58062904203D0B1
:100BBC0002F58062904203D123F070034A881343FC
:100BCC00154A904208D002F58062904204D023F47A
:100BDC0040739BB2CA88134303808B8883850B8830
:100BEC0003850C4B98420FD003F5006398420BD051
:100BFC0003F54063984207D003F58063984203D015
:100C0C0003F58063984201D10B7A0386012383821A
:100C1C00704700BF002C01400010004029B1038830
:100C2C009BB243F001030380704703889BB223F00F
:100C3C0001039BB20380704722B183899BB2194395
:100C4C00818170478389C94389B21940818170477A
:100C5C00028A83890B40114202D01BB900207047D5
:100C6C000020704701207047C94389B20182704748
:100C7C0030B587B004460D46038A9BB2CA8823F46C
:100C8C0040531343038283899BB28A8809896889FC
:100C9C000A43024323F4B05323F00C031343A38100
:100CAC00A38A9BB2AA8923F440731343A38201A89D
:100CBC00FFF722FE1E4B9C4201D1049A00E0039ADE
:100CCC00A38913F4004F08D002EB820202EB8202DC
:100CDC0029684900B2FBF1F107E002EB820202EB5A
:100CEC00820229688900B2FBF1F1124BA3FB0123AC
:100CFC005B091B011A09642000FB1212A18911F473
:100D0C00004F08D0D20032320A49A1FB0212C2F3C2
:100D1C0042121A4307E0120132320649A1FB0212B9
:100D2C00C2F343121A4392B2228107B030BD00BF06
:100D3C00003801401F85EB5129B183899BB243F4E4
:100D4C0000538381704783899BB223F400539BB279
:100D5C0083817047C1F30801818070478088C0F39C
:100D6C00080070470388194201D001207047002009
:100D7C00704700BF10F0030F14D10D4BA3FB0023E1
:100D8C005B09642202FB13039BB26BB9084BA3FBF8
:100D9C000023DB094FF4C87202FB130080B228B9A0
:100DAC0001207047002070470120704700207047D9
:100DBC001F85EB51F8B5FFF765FE00F56157354C13
:100DCC00A4FB0734240C344B1B889C4234D0324B8C
:100DDC001C8040F2B2760EE03046FFF7CBFF0128C4
:100DEC0005D1B4F5B77F09D3A4F5B77401E0A4F22B
:100DFC006D140136B6B2B4F5B67FEDD8274B1E8014
:100E0C00002511E0012D08D13046FFF7B3FF012872
:100E1C0003D11C2C0AD91D3C04E0214B5B5D9C4288
:100E2C0004D3E41A0135ADB21B2CEBD801351D4BA4
:100E3C001D7001341C4B1C70164BA3FB07231B0CA1
:100E4C001A4A02FB13731A4AA2FB0312D20AD0B23B
:100E5C00184908704FF4616101FB1231164BA3FB6A
:100E6C0001235B09DCB2154A1470C3EB03139A001F
:100E7C008A1AD3B2124A1370124A137054709070BB
:100E8C00094B1B78D370074B1B785371034B1B8892
:100E9C00D380F8BD07452EC27E0B00201600002023
:100EAC00686A00081800002014000020805101001E
:100EBC00C5B3A2917C0B002089888888810B002007
:100ECC00800B0020040D00202DE9F0478246894656
:100EDC00174698469DF8206040F63303984200D997
:100EEC009A4640F2B1739A4501D840F2B27A002486
:100EFC0040F2B27511E02846FFF73CFF012804D1FF
:100F0C0004F1F17404F5054405E004F1F07404F502
:100F1C00993404F5C0740135ADB2AA45EBD809F18A
:100F2C00FF31C9B2002306E0124AD25C124800FB22
:100F3C00024401339BB28AB29342F5D30F4B18880B
:100F4C00FFF718FF012803D104F5A83404F5C07489
:100F5C00013F094800FB07444FF4616303FB08445D
:100F6C00C6EB0616B30023449DF824001844BDE8D4
:100F7C00F08700BF686A000880510100160000204D
:100F8C0038B50E4C0E4DE178284603F015FA617910
:100F9C00284603F011FAE1880A4803F00DFA0A4DCD
:100FAC00A178284603F008FA6178284603F004FA81
:100FBC002178064803F000FA38BD00BF040D00206C
:100FCC00746A0008786A00087C6A0008806A000865
:100FDC000C4B98810B4B1B8903F002039BB2002B2B
:100FEC00F8D0084B1B8913F0010FFAD0054B1B8965
:100FFC0003F080039BB2002BF8D1024B9889C0B24E
:10100C00704700BF00300140F8B506460C46154647
:10101C001F4601210B48FFF73FFC04F01F00304333
:10102C00FFF7D6FF002406E06E1C0020FFF7D0FF70
:10103C00287001343546BC42F6DB01210148FFF72C
:10104C0029FCF8BD000C0140F8B506460C461546C7
:10105C001F4601210B48FFF71FFC04F01F00304313
:10106C00FFF7B6FF002405E06E1C2878FFF7B0FFF1
:10107C0001343546BC42F7DB01210248FFF70AFC7C
:10108C00F8BD00BF000C014038B505460C460121E7
:10109C000548FFF701FC2846FFF79AFF1CB9012110
:1010AC000148FFF7F7FB38BD000C014008B500F014
:1010BC00E0000F4B1B78984219D0E02817D00C4B4E
:1010CC0018704009032812D8DFE800F002060A0E57
:1010DC00C020FFF7D9FF08BDC220FFF7D5FF08BD20
:1010EC00C420FFF7D1FF08BDC620FFF7CDFF08BD18
:1010FC00840B002010B582B004460121FFF7D6FF07
:10110C0001230DF1060204F01F010020FFF77CFF04
:10111C009DF8060002B010BD10B582B00446012146
:10112C00FFF7C4FF02230DF1060204F01F0100209B
:10113C00FFF76AFFBDF8060002B010BD30B583B0F2
:10114C00054602AC04F8011D0121FFF7AFFF012396
:10115C00224629468020FFF777FF03B030BD00BF41
:10116C0070B582B004460E460121FFF79FFF02AD19
:10117C0005F8016D01232A4604F01F014020FFF7FA
:10118C0063FF360A8DF80760611C01232A4601F0C3
:10119C001F014020FFF758FF02B070BD30B583B07F
:1011AC00054602AC04F8011D0121FFF77FFF012366
:1011BC00224629464020FFF747FF03B030BD00BF51
:1011CC0070B506460C46154601210948FFF764FB2D
:1011DC003046FFF7FDFEE0B2FFF7FAFE200AFFF7FC
:1011EC00F7FE1DB901210248FFF754FB70BD00BF8B
:1011FC00000C014038B504460D4601210A48FFF7A2
:10120C004BFB2C20FFF7E4FE06E0013CA4B20020CF
:10121C00FFF7DEFE05F8010B002CF6D10121024888
:10122C00FFF738FB38BD00BF000C014070B5054618
:10123C000E4601210A48FFF72FFB2A20FFF7C8FEB4
:10124C0004E016F8010BFFF7C3FE25466B1E9CB29B
:10125C00002DF6D101210248FFF71CFB70BD00BF29
:10126C00000C014010B5044641F234211620FFF762
:10127C0077FF04E041F234211620FFF771FF1620AE
:10128C00FFF74AFF41F234239842F3D1FB20FFF7DA
:10129C0031FF10F4805FF9D10021CA20FFF7F4FE72
:1012AC00192002F07DFB1620FFF736FF002846D1EF
:1012BC0040F2091002F074FB4FF49A51204B198044
:1012CC000420FFF74DFF45F6FF710620FFF748FF9E
:1012DC0045F6FF711620FFF743FF45F6FF71182006
:1012EC00FFF73EFF59213420FFF758FFF021422031
:1012FC00FFF724FF40F2DC514A20FFF731FF217841
:10130C006420FFF74BFF61786520FFF747FFA1785A
:10131C006220FFF743FFE1786320FFF73FFF21795D
:10132C006020FFF73BFF61796120FFF737FF402119
:10133C007220FFF733FF0021E820FFF7A5FE10BD58
:10134C00820B002070B582B006460D46FC20FFF7DC
:10135C00D1FE10F0400F41D0234C00222188642094
:10136C00FFF72EFF69460220FFF744FF9DF801208E
:10137C009DF8003043EA0223238069460620FFF7DC
:10138C0039FF9DF801409DF8003043EA0424043CE9
:10139C009DF90230002B00DB0024B44200D900245C
:1013AC002946A0B2FFF726FF0F4B1B889D1EADB23E
:1013BC00B3F59A5F01D145F6FC750121FF20FFF7CB
:1013CC00EDFEE9B20620FFF7E9FE290A0720FFF738
:1013DC00E5FE701E844203D9002002E0002000E0EC
:1013EC00204602B070BD00BF820B002038B5044609
:1013FC000D46002230216C20FFF7E2FE3021002048
:10140C00FFF7CCFE00210120FFF7C8FEE1B202205D
:10141C00FFF7C4FEC4F307210320FFF7BFFE2946E4
:10142C00A0B2FFF703FF0321FE20FFF7B7FE38BD84
:10143C00024A1368591C1160187070478C0B0020FD
:10144C000B4B1B78052B0FD110B50A4B1C680A4BA4
:10145C001B681C4402F092FA844202D80622044B08
:10146C001A70034B187810BD014B1878704700BFE9
:10147C009A0B0020940B00209C0B00202DE9F041CE
:10148C0005460E46604B1C780134E4B21C704FF4D8
:10149C00C872002104F092FE44235C4A126844F4A2
:1014AC006041284600F0CAFB594B1B681A68C5F806
:1014BC0006209A886A814FF0FF322A60AA804FF08A
:1014CC00820885F811801121E975C5F81E20432288
:1014DC0085F82520002485F82240442285F8232015
:1014EC00012785F82A7085F82B70062285F82C20A8
:1014FC0085F82D40474A1268C5F82E20464A1288B6
:10150C006A868022AA86C5F83A401A68C5F8462031
:10151C009B88A5F84A3005F58B72404B1A60632006
:10152C00FFF786FF4046FFF783FF5320FFF780FF4E
:10153C006320FFF77DFF3520FFF77AFF3846FFF772
:10154C0077FF3046FFF774FF3D20FFF771FF072050
:10155C00FFF76EFF3846FFF76BFF05E02C4B1B685F
:10156C00185DFFF765FF0134052CF7DD0C20FFF744
:10157C005FFF0A20FFF75CFF002404E0284B185D96
:10158C00FFF756FF0134092CF8DD032E1FD1322052
:10159C00FFF74EFF0420FFF74BFF002405E01B4B29
:1015AC001B68185DFFF744FF0134032CF7DD362070
:1015BC00FFF73EFF0420FFF73BFF002405E0194B2B
:1015CC001B68185DFFF734FF0134032CF7DD37205F
:1015DC00FFF72EFF0320FFF72BFF0120FFF728FF5B
:1015EC000320FFF725FF0620FFF722FFFF20FFF760
:1015FC001FFF0A4B1968491B2A3989B2284600F08B
:10160C006BFBBDE8F08100BFA00B0020100D00208B
:10161C00880B0020900B0020980B00208C0B0020D6
:10162C001C000020140D002010B504462048016059
:10163C0020490A60204A1360204B029A1A60204B02
:10164C00039A1A601F4B049A1A60132004F0BEFD13
:10165C0004F0E4FD1C4B03441C4A136000231C4A99
:10166C00138010E0134A11680022CA541249096809
:10167C00CA5412490968CA5411490968CA54114913
:10168C000968CA540133032BECDD094B1B685B79E9
:10169C0010491A0941320A7203F00F0341334B729D
:1016AC0001212046FFF7EAFE01220B4B1A7010BDF8
:1016BC00880B0020100D00201C0D0020180D0020A0
:1016CC00140D00200C0D002021436500900B002010
:1016DC00980B00201C0000209A0B002008B5032159
:1016EC00FFF7CCFE0322014B1A7008BD9A0B0020A9
:1016FC00F8B5244B1B68D0F83A201A6000F58D73AE
:10170C001A4612F8024B5B78062C14D004D8012C24
:10171C0007D0032C0AD02DE0332C11D0362C25D039
:10172C0028E0194C24681568256023E0174C2468C0
:10173C00156825601EE0164C24681568256019E0B4
:10174C000024144D2C6007E0175D124E35683D44A3
:10175C002D0235600134E4B2032CF5D90D4D2E6801
:10176C004FF47A7404FB06F42C6003E00A4C2468F2
:10177C0015682560134442189342C1D3FFF7AEFF9E
:10178C000120F8BD100D00201C0D0020180D0020AC
:10179C000C0D00209C0B0020140D002008B5052218
:1017AC00034B1A7002F0EAF8024B1860022008BDD5
:1017BC009A0B0020940B002045291FD908B590F8EE
:1017CC002330432B1CD190F82A30022B1AD1D0F89D
:1017DC002E20104B1B689A4216D190F81A31352BDB
:1017EC0014D190F81C31022B02D0052B03D00FE042
:1017FC00FFF77EFF08BDFFF7D1FF08BD0020704743
:10180C00002008BD002008BD002008BD002008BD38
:10181C00002008BD900B002010B4012A02D101F168
:10182C00090300E00023022A0BD106330B44083BCA
:10183C0007E00478427842EA042213440230023969
:10184C0089B20129F5D829B1027803EB022301E012
:10185C009BB213441A0CFBD1D84380B210BC704716
:10186C0010B4140A0B4B1C700B4B1A70002304E0C1
:10187C00CC5C0A4AD4540133DBB2032BF8D90023D5
:10188C0004E0C15C064AD1540133DBB2052BF8D914
:10189C0010BC7047B20B00202C000020B40B0020B1
:1018AC00200D002010B4002307E003F11A02845C21
:1018BC00CA5C944205D10133DBB2032BF5D901206C
:1018CC0000E0002010BC7047282914D9037B082B9A
:1018DC0013D1437B062B12D1002308E003F126021F
:1018EC00815C094AD25C91420BD10133DBB2032BF0
:1018FC00F4D9012070470020704700207047002069
:10190C0070470020704700BFB40B0020292917D95D
:10191C00037B082B17D1437BBBB9827B452A10D1A3
:10192C0010B4002208E002F11E01445C0949895CF4
:10193C008C420CD10132D2B2032AF4D9012306E035
:10194C000023184670470023FBE70023F9E71846ED
:10195C0010BC7047B40B0020002307E09A1D815C7B
:10196C00C1540449C95C81540133DBB2052BF5D950
:10197C00704700BF200D002010B5044600220276EF
:10198C004276402303754275837514210E30FFF7A0
:10199C0043FF030A2376607610BD00BF10B5002309
:1019AC000AE003F11E0103F11A02845C4454054958
:1019BC00C95C81540133DBB2032BF2D9FFF7DCFF96
:1019CC0010BD00BFB40B002070B4042310E003F171
:1019DC002505445D214489B203F12904065D0155B6
:1019EC000AB1465501E000244455090A013BDBB21B
:1019FC00002BECD170BC704738B5044690F82430FD
:101A0C0090F8225080F8245080F8223090F825303D
:101A1C0090F8235080F8255080F82330FFF7D4FF3E
:101A2C00002384F8323084F83330502384F82E307D
:101A3C0038BD00BF10B50446FFF78EFF0023237599
:101A4C00022262750AE003F1200103F11602A05C88
:101A5C0060540D49C95CA1540133DBB2052BF2D99A
:101A6C0000230AE003F1260103F11C02A05C605480
:101A7C000649C95CA1540133DBB2032BF2D92146D0
:101A8C002A20FFF7B3FC10BD200D0020B40B002062
:101A9C0038B504460D46FFF75FFF2046FFF77EFF83
:101AAC00002384F8223094F82430F72B04D994F8CE
:101ABC002520013284F82520083384F8243021466F
:101ACC002846FFF793FC38BD38B50446FFF744FFB2
:101ADC00002525742C2363742046FFF75FFF122327
:101AEC0084F82F302A4601212046FFF785FF84F821
:101AFC00265084F82750154A137884F8283084F837
:101B0C00295003331370022284F83620042384F8FE
:101B1C003730052384F8383084F83950602184F844
:101B2C002E1084F83030782384F83130202104F1E1
:101B3C001A00FFF771FE030A84F8323084F8330080
:101B4C0021463A20FFF752FC38BD00BF2B00002085
:101B5C00027C437C43EA02231BB2143B9BB290F8F9
:101B6C002E000009A3EB800000B2002800DC00204E
:101B7C0080B2704770B504460D461646FFF7ECFE72
:101B8C0046F0100384F82F30042E05D10122A9B29F
:101B9C002046FFF731FF06E005B901250122A9B265
:101BAC002046FFF729FF002525742823637420465F
:101BBC00FFF7F4FE042384F8303084F8315002220D
:101BCC001C2104F11A00FFF727FE030A84F83230B7
:101BDC0084F8330021463620FFF708FC70BD00BFA7
:101BEC0038B504460D4601F128039BB21A0A02745B
:101BFC004374FFF7C1FE002384F8323084F833308D
:101C0C0005F11C01022289B204F11A00FFF704FE4F
:101C1C00030A84F8323084F83300214605F136008B
:101C2C00FFF7E4FB38BD00BF05E012F8013B00F8FC
:101C3C00013B013989B20029F7D170472DE9F041F8
:101C4C0004460E4615461F46002308E01E4AD25C89
:101C5C00E2549A1D1D49C95CA1540133DBB2052B1A
:101C6C00F4D9082323734FF0000884F80D80184A28
:101C7C00092104F10E00FFF7D7FF84F8108011231F
:101C8C00E37543460AE003F11E02E95CA15403F13B
:101C9C001A021049C95CA1540133DBB2032BF2D9EF
:101CAC003B0A84F8243084F82570330A84F82230F7
:101CBC0084F82360002384F8263084F8283084F8D4
:101CCC002930BDE8F08100BFC80B0020200D00209A
:101CDC002C6C0008B40B002070B504460D4601F1C5
:101CEC001C031B120374CEB206F11C034374FFF7E2
:101CFC0043FE05F108031B1284F82630083684F8DD
:101D0C00276005F11001012289B204F11A00FFF7D6
:101D1C0083FD030A84F8283084F82900214605F154
:101D2C002A00FFF763FB70BD38B504460D4600234F
:101D3C0007E0FF22E2549A1D1B49C95CA1540133F0
:101D4C00DBB2052BF5D90821217306236373174ADF
:101D5C0004F10E00FFF768FF00230AE003F11602FE
:101D6C001149C95CA15403F120020021A154013393
:101D7C00DBB2052BF2D900230AE003F12602E95C61
:101D8C00A15403F11C020A49C95CA1540133DBB212
:101D9C00032BF2D9074A137843F00803137021463A
:101DAC002A20FFF723FB38BD200D0020386C0008DB
:101DBC00B40B00202D000020002308E003F11C02CE
:101DCC00815C0B4AD25C914210D10133DBB2032B04
:101DDC00F4D9002306E003F11602815C054AD154C4
:101DEC000133DBB2052BF6D9012070470020704778
:101DFC00C00B0020C80B00200023074A13800121D0
:101E0C00064A117004E0C15C054AD1540133DBB2BF
:101E1C00032BF8D9704700BF280000202D000020AC
:101E2C00C00B00202DE9F04104460D4617461E4616
:101E3C00002308E03B4AD25CE2549A1D3A49C95C43
:101E4C00A1540133DBB2052BF4D9082323734FF0D3
:101E5C00000884F80D80354A092104F10E00FFF7C3
:101E6C00E3FE2C2363740623E37543460BE003F176
:101E7C001E022F49C95CA15403F11A022D49C95CF9
:101E8C00A1540133DBB2032BF1D92046FFF774FDCB
:101E9C0084F8247084F825600B2384F8223084F8AD
:101EAC002350002305E003F126020021A154013345
:101EBC00DBB2072BF7D9204A137884F82830033388
:101ECC001370602384F82E30022284F82F20042112
:101EDC0084F83010002384F8313084F8323084F8E0
:101EEC00333084F8343084F8353084F8362084F874
:101EFC00371084F83820262384F83930202104F157
:101F0C001A00FFF789FC030A84F8323084F8330096
:101F1C0021463A20FFF76AFA084802F071FABDE848
:101F2C00F08100BFC80B0020200D00202C6C000895
:101F3C00A40B0020B40B00202B000020846B0008A5
:101F4C002DE9F0410446002932D1B24B1B7813F035
:101F5C00010F04D1AF4B1B7813F0040F07D0AE4B1D
:101F6C00B3F900301BB9AD492046FFF7DDFEAA4A94
:101F7C00138801331380AA4B1B78012B40F0C281CC
:101F8C000222A74B1A70A74A13780133DBB21370E5
:101F9C00A54A117803F01F0343EA4111A34B1B78A8
:101FAC00A34A1278C9B22046FFF73CFF0025C0E1D6
:101FBC000E46FFF789FCD0B1637D012B02D1204680
:101FCC00FFF738FD934B1B7813F0080F00F09C8142
:101FDC00637D022B40F09A812046FFF7EDFE00282E
:101FEC0000F0968102228B4B1A700025A1E131463C
:101FFC002046FFF78BFC002800F08C81E37D112B31
:10200C0007D194F8222022B994F82320352A00F025
:10201C008381012B12D194F82220082A0ED1854BF2
:10202C001B6813B104F11A00984731462046FFF79C
:10203C002FFD814802F0E4F900257AE1352E02D813
:10204C00062B40F06B8194F824300B2B40F0298147
:10205C007A4B1C607A492046FFF724FC002800F0DC
:10206C005F8194F82F5015F0040F13D0754B1B683B
:10207C005BB1754802F0C4F994F82500714B1C68EB
:10208C0000231A4603214009A0470522644B1A700D
:10209C0000254EE12046FFF75BFD0746604B1B78A1
:1020AC00022B38D105F01203122B24D1674802F011
:1020BC00A7F9002211462046FFF75CFD182384F88F
:1020CC002F30634B1B6853B1624802F099F9604B97
:1020DC001B6894F8230040099847014600E0002152
:1020EC0003224F4B1A702046FFF77AFD5A4802F034
:1020FC0087F900251DE10122494B1A70811889B21C
:10210C0015F0100F00D00021042209B22046FFF771
:10211C0031FD00250DE1042B37D14A4B1B68F3B17F
:10212C0094F82E502D09AD002235A6F108039D42DE
:10213C0000DD9DB2EB199E4202DA761BB6B200E0CE
:10214C003E46464802F05CF93E4BD3F8008094F8CA
:10215C00250033462A4600214009C04700E00020F4
:10216C0060B13F4802F04CF9092239B22046FFF722
:10217C0001FD05222A4B1A700025DAE0002239B243
:10218C002046FFF7F7FC0025D3E0032B3AD10422BD
:10219C00234B1A702B4B1B68F3B194F82E50D5407F
:1021AC00AD002235A6F108039D4200DD9DB2EB196E
:1021BC009E4202DA761BB6B200E03E46274802F099
:1021CC001FF9204BD3F8008094F8250033462A469B
:1021DC0000214009C04700E0002060B1204802F017
:1021EC000FF9092239B22046FFF7C4FC05220C4B2B
:1021FC001A7000259DE0002239B22046FFF7BAFC88
:10220C00002596E0052B2FD1164802F0F9F8002591
:10221C008FE000BF2D00002028000020C00B002004
:10222C00C50B00202A000020C60B0020C40B002088
:10223C00C70B0020BC0B0020946B0008B80B0020CF
:10224C00A40B0020AC0B0020A06B0008C46B000892
:10225C00A80B0020D06B0008E46B0008F06B0008A2
:10226C00086C0008146C000815F0010F0DD03248F2
:10227C0002F0C6F8791C092209B22046FFF77AFC55
:10228C0005222E4B1A70002553E000284AD000225C
:10229C0001B22046FFF76EFC294802F0B1F8002588
:1022AC0047E0284A127893423ED194F82520264BD9
:1022BC001B789A423AD194F82F7017F0020F04D081
:1022CC002046FFF701FC002533E017F0100F2FD04C
:1022DC002046FFF73DFC05461C4B188040B917F013
:1022EC00010F26D0002211462046FFF743FC20E0C8
:1022FC0094F82E502D09AD002235083EB54218DD5C
:10230C00002516E0002514E0002512E0002510E061
:10231C0000250EE000250CE02A250AE0002508E047
:10232C00002506E0002504E0002502E0002500E081
:10233C0000252846BDE8F081206C0008C50B002064
:10234C00E46B0008B20B00202C000020B00B002026
:10235C0008B51F4B1B78DBB2012B08D14FF48571EC
:10236C001C4803F0BFFC0022194B1A7008BD184B17
:10237C001B78DBB2022B08D14FF49671164803F090
:10238C00B1FC0022124B1A7008BD114B1B78DBB24A
:10239C00032B08D14FF49671104803F0A3FC0022D4
:1023AC000B4B1A7008BD0A4B1B78DBB2042B08D1FF
:1023BC000B4B19880B4803F095FC0022044B1A7048
:1023CC0008BD1022084B1A700022014B1A7008BD70
:1023DC00D40B00206C040020A8010020D4020020A3
:1023EC00CE0B0020300D00208815002008B5054BC1
:1023FC001B7813B902F098FC08BD1022024B1A701E
:10240C0008BD00BFD50B00208815002038B53D490C
:10241C004FF4487002F0D2F980B23B4B1880002880
:10242C002FD03A4A138801331380394B1880354B1F
:10243C009C894FF4006002F01DFD844211D1344C94
:10244C00314B1B88238003F029FD012002F052FD43
:10245C002388B3B103F0BAFD2A49208802F002FAAE
:10246C000FE0284B9C8940F6060002F003FD8442E5
:10247C0007D103F03BFD264B188810B1214902F01F
:10248C00F1F901F07BFAA0F5FA70224B1B68984227
:10249C0037D901F073FA1F4B1860002413E01C4D60
:1024AC0000232B801C4B03EB44131C4A13600220AB
:1024BC0002F020FD2B882BB103F088FD11492888F0
:1024CC0002F0D0F90134032CE9DD154B1B78ABB1CC
:1024DC0038BD0F4D00232B80124B03EB0413124A13
:1024EC001360052002F006FD2B882BB103F06EFD66
:1024FC000449288802F0B6F9013400E00024032CCA
:10250C00E7DD38BD2C16002018110020280D002006
:10251C007C1500202C0D002098150020941500200F
:10252C00D50B0020181A00208C15002030B583B074
:10253C000278437843EA02231A0A42EA0323ADF8ED
:10254C0004308278C37843EA02231A0A42EA03234E
:10255C00ADF80630084602F08DFC014601A803F0E8
:10256C00F7FA044601F00AFA00F57A65FFF74EFF18
:10257C00ACB9002017E0FFF749FF637E03F00F03AF
:10258C00032B04D1094801F03BFF01200BE001F0C3
:10259C00F5F9401B002802DD0020607603E0607E28
:1025AC0010F00F00E7D103B030BD00BF406C000845
:1025BC00F0B587B00546002305E006AA1A44302181
:1025CC0002F8141C0133132BF7DD00273C464FE0B7
:1025DC0026462B5D4D2B4AD12B195B78692B46D1A6
:1025EC002B199B786C2B42D12B19DB786C2B3ED1A1
:1025FC002B191B79692B3AD12B195B79732B36D19B
:10260C002B199B793D2B32D1FEF73CFA10E0791C4B
:10261C00194BA3FB0023DB089E4603EB83035A00F4
:10262C00831A06AA1744303307F8143C7046CFB20D
:10263C000028ECD106AB1F44302307F8143C0027CC
:10264C00092309E0E21D3A4406A9194411F8141CA7
:10265C00A9540137FFB2013B002BF3DA06F110024B
:10266C003023AB5406F11102AB541236AB55013486
:10267C00952CADDD07B0F0BDCDCCCCCC10B584B075
:10268C003A4C204602F02EF82278394B1A706278B8
:10269C005A70A2789A70E278DA7022791A7162799B
:1026AC005A7102F0A9FB03F0B3FB324801F0A8FE0B
:1026BC000621204602F01CFB0AE02F4801F0A0FE88
:1026CC004FF47A7001F060F90621284802F010FBF3
:1026DC0002F028FA0028F0D00122284B1A70284B5F
:1026EC001A88ADF80C205B88ADF80E30254801F047
:1026FC0087FE9DF80C109DF80D209DF80E309DF86E
:10270C000F000090204801F057FE204B19885B8881
:10271C00C3F307220092DBB2C1F30722C9B21C48F3
:10272C0001F04AFE1B4B19885B88C3F30722009209
:10273C00DBB2C1F30722C9B2174801F03DFE1748BE
:10274C0001F05EFE164801F05BFE1649164801F0DA
:10275C00A5FC30B101F012F900F51C501030134BF0
:10276C0018600022124B1A7004B010BD300000200B
:10277C00600C0020546C0008646C0008D50B002021
:10278C0028160020786C0008946C00082016002095
:10279C00A86C000824160020BC6C0008186F0008F8
:1027AC00D46C0008A401002038000020D00B0020BD
:1027BC00D40B00202DE9F84340B9002310E0B64AB1
:1027CC00D15CB64AD15401339BB200E00023B22B4A
:1027DC00F5D907E0B24AD15CB04AD15401339BB26F
:1027EC00B32BF7D9013B9CB20025ADE0284600F095
:1027FC0087FD002304E00133DBB2A0F57A7080B2D0
:10280C00B0F57A7FF7D223B1621C3033A3490B5554
:10281C0094B2002303E00133DBB2643880B2632846
:10282C00F9D823B1621C30339C490B5594B2002368
:10283C0003E00133DBB20A3880B20928F9D823B19E
:10284C00621C303395490B5594B2611C89B2934B81
:10285C0030301855A21C92B24FF0250E03F801E04F
:10286C00E11C89B233279F54221D92B24120585447
:10287C00611D89B24FF0420C03F802C0A21D92B246
:10288C004FF0690C03F801C0E11D89B24FF06E0CDA
:10289C0003F802C004F1080292B24FF0610C03F885
:1028AC0001C004F1090189B24FF0720C03F802C0A7
:1028BC0004F10A0292B24FF0790C03F801C004F152
:1028CC000B0189B203F802E004F10C0292B25F54DE
:1028DC000D34A4B29854002305E0611C01339BB263
:1028EC006E4802558CB26F4A52F82620D25C002AF0
:1028FC00F3D1611C89B2694A25231355A31C9BB2E1
:10290C0033205054E61CB6B24121D154284600F075
:10291C0007FD28B10434A4B23122604B9A5504E06F
:10292C000434A4B230225D4B9A55611C89B25B4AC7
:10293C0025231355A31C9BB2322050540334A4B24C
:10294C004321D1540135EDB22E4600F0E5FC0A3896
:10295C008542FFF64BAF00264BE1304600F0D6FC2B
:10296C00002304E00133DBB2A0F57A7080B2B0F53D
:10297C007A7FF7D223B1621C303348490B5594B29D
:10298C00002303E00133DBB2643880B26328F9D84A
:10299C0023B1621C303341490B5594B2002303E040
:1029AC000133DBB20A3880B20928F9D823B1621C92
:1029BC0030333A490B5594B2611C89B2374B3030E5
:1029CC001855A21C92B225275F54E01C80B2332507
:1029DC009D54221D92B241211954601D80B299540C
:1029EC00A21D92B24FF06E0E03F800E0E01D80B213
:1029FC004FF0610E03F802E004F1080292B24FF0BE
:102A0C006C0E03F800E004F1090080B24FF06F0E79
:102A1C0003F802E004F10A0292B24FF0670E03F8D9
:102A2C0000E004F10B0080B29F5404F10C0292B24E
:102A3C001D540D34A7B29954002305E0791C0133C1
:102A4C009BB21648C2558FB2174A52F82620D25C58
:102A5C00002AF3D1791C89B2104A2523D355BB1C0B
:102A6C009BB233205054FC1CA4B24121D1543046AB
:102A7C0000F05CFC0D49FDF779FC05460021FDF7E3
:102A8C0013FE30B104372D22044B1A5505F10045C5
:102A9C00BCB2002713E000BFF0000020300D002076
:102AAC003C00002078050020EC05002000002041AF
:102ABC000137FFB25B492846FDF74EFB05465949E5
:102ACC002846FDF705FE0028F2D117B94FF0000893
:102ADC0001E04FF00108B8F1000F04D0631C30374F
:102AEC00514A17559CB2002706E00137FFB24F49F7
:102AFC002846FDF731FB05464C492846FDF7E8FD15
:102B0C000028F2D10FB14FF00108B8F1000F04D03A
:102B1C00631C3037444A17559CB2002706E0013736
:102B2C00FFB243492846FDF717FB054640492846A6
:102B3C00FDF7CEFD0028F2D10FB14FF00108B8F12E
:102B4C00000F04D0631C3037374A17559CB200274E
:102B5C0006E00137FFB237492846FDF7FDFA054676
:102B6C0034492846FDF7B4FD0028F2D10FB14FF0DF
:102B7C000108B8F1000F04D0631C30372A4A1755EE
:102B8C009CB2002706E00137FFB22B492846FDF71F
:102B9C00E3FA054628492846FDF79AFD0028F2D1AC
:102BAC00631C9BB2DFF88080303708F8047004F1A6
:102BBC0002091FFA89F92E2208F80320E71CBFB27C
:102BCC001E492846FDF7CAFAFDF796FD08F80900DC
:102BDC00221D92B2252308F80730631D9BB23221C7
:102BEC0008F802100634A4B2432208F80320013678
:102BFC00F6B200F093FB8642FFF4AFAE631E3021B9
:102C0C00094AD154002307E0621C591C0C48C05CD3
:102C1C00054B18558BB294B26A2BF5D9094B1C8015
:102C2C00BDE8F8830050C347300D002000401C461F
:102C3C0000007A440000C8420000204100004042DD
:102C4C0000040020CE0B002010B5002800F0AB8053
:102C5C00564B1B7813F0FF0F21D101291FD154487B
:102C6C0001F0AAFB0122514B1A70524B19885248A1
:102C7C00FFF75CFC58B9514801F0C2FB4D4B198869
:102C8C004D48FFF753FC10B94D4801F0B9FB00F06B
:102C9C0075FE00F5434050304A4B186083E0022A21
:102CAC0013D1494801F088FB4848FFF781FC022208
:102CBC003E4B1A703F4B19883F48FFF737FC0028F2
:102CCC00F8D0434801F09CFB6DE0042A1ED13E482D
:102CDC0001F072FB3F48FFF76BFC0322334B1A7079
:102CEC00344B19883448FFF721FC58B9334801F0AC
:102CFC0087FB304B19883048FFF718FC10B9304867
:102D0C0001F07EFB324801F07BFB4CE0082A2AD113
:102D1C00314801F051FB3148FFF74AFC0120FFF725
:102D2C0049FD0422214B1A70224B19882248FFF7C7
:102D3C00FDFB58B9214801F063FB1E4B19881E4856
:102D4C00FFF7F4FB10B91E4801F05AFB002405E014
:102D5C00234B185D01F03CF80134A4B2214B1B88C5
:102D6C009C42F5D31FE0092A1DD11F4801F024FB1A
:102D7C001A48FFF71DFC0020FFF71CFD04220B4B2B
:102D8C001A700C4B19880C48FFF7D0FB58B90B483C
:102D9C0001F036FB074B19880748FFF7C7FB10B942
:102DAC00074801F02DFB03F049F810BDD40B0020AF
:102DBC00EC6C0008A4010020380000201C6D0008F9
:102DCC003C6D0008D00B00204C6D0008A8010020C1
:102DDC00786D0008D4020020846D0008F0000020FB
:102DEC00300D0020CE0B0020B86D00082DE9F04FFF
:102DFC0085B00446884615469B46109F00F0BEFDE4
:102E0C008146129B0293119B019300970F9B0E9A84
:102E1C0029462046FEF708FC4FF0030A00263AE04C
:102E2C0021464046FEF78EFA0546A0B3642000F01A
:102E3C00ABFDADB229462046FFF782F858BB2946B8
:102E4C002046FEF7B9FCFEF7FBFA052819D000F076
:102E5C0095FD09F57A7398421DD900F08FFD8146D6
:102E6C000AF1FF3A1AF0FF0A19D0129B0293119B38
:102E7C00019300970F9B0E9A0B492046FEF7D4FB4B
:102E8C0009E046B95A460E990748FEF7E9FC384660
:102E9C00FEF7B2FF0126002EC2D0012000E0002078
:102EAC0005B0BDE8F08F00BF3806002090F8223046
:102EBC00BA2B03D190F82320C02A07D0E42B40F082
:102ECC00F38090F82330032B40F0EE8090F8243000
:102EDC00BA2B40F0E98090F82530C02B40F0E4800C
:102EEC0090F82A30812B40F0DF802DE9F04182B040
:102EFC0090F82F3013F0200F01D1302400E034244F
:102F0C0013F0080F01D00434E4B22546035D102BF6
:102F1C0016D1021952789AB9644A127882B9817E14
:102F2C00634C2170C27E6270037FA370407FE0709F
:102F3C000090604801F040FA01225C4B1A70B0E03E
:102F4C00302B40F0AE8043199B780E2B40F0A980BB
:102F5C004319DB780C2B57D142195279C02A53D123
:102F6C0043199A790735435D43EA022C4FF0FF0E63
:102F7C00002608E0504F37F81670BC4501D15FFAB7
:102F8C0086FE0136B6B21C2EF4D9BEF1FF0F04D169
:102F9C0061464A4801F010FA83E00834035D1E2BA9
:102FAC007FD12EE0234602195278292A27D1021903
:102FBC009278552A23D10219D2784E2A1FD10219A0
:102FCC001279912A1BD1021992794F2A17D1724684
:102FDC003B4911F80E1049B901194979012905D954
:102FEC00082438490C80012437490C800344597952
:102FFC00334B9954415D354801F0DEF951E0013411
:10300C00A4B28C42CED34CE00C2B4AD143195B7941
:10301C00002B46D10544AA79EB7943EA022300251B
:10302C0008E02B4A32F81520934201D1EDB204E0AE
:10303C000135ADB2032DF4D9FF25FF2D31D0083465
:10304C00035D1E2B2DD12AE002195278292A24D196
:10305C0002199278552A20D10219D2784E2A1CD105
:10306C0002191279442A18D10219527A4F2A14D112
:10307C00204444798679C77990F80880144B33F84A
:10308C001510144801F098F9134B03F8258003EB45
:10309C0085056F70AE70EC7003E00134A4B28C4205
:1030AC00D2D302B0BDE8F081704700BF25150020D7
:1030BC00000C0020EC6D0008FC050020146E0008CC
:1030CC00DC0B0020FA0B0020FC0B0020246E000807
:1030DC004C0600203C6E00081015002008B50B496A
:1030EC004FF47A70FEF72EF981B2094B198031B189
:1030FC00084A1388013313800448FFF7D7FE044BAA
:10310C0019880248FEF71CFF08BD00BF20110020E3
:10311C001C110020FE0B00202DE9F04387B0DFF8D6
:10312C0000914846FEF79EF8DFF8F880002788F8F3
:10313C000070284B1B88284A0492284C0394284D75
:10314C000295284A0192284E00964A4640F2E931EF
:10315C002648FFF74BFE88F80000DFF8CC8040468D
:10316C0001F04EF931787278B378F07800902048FD
:10317C0001F022F929786A78AB78E87800901D483C
:10318C0001F01AF921786278A378E07800901A4857
:10319C0001F012F9194801F033F9404601F030F909
:1031AC0000F0ECFB00F5FA60154B1860154B1F7026
:1031BC00154B1F70154A1649164800F057FF28B1D9
:1031CC00154801F01DF90122144B1A8007B0BDE817
:1031DC00F08300BF3E06002020150020480600208A
:1031EC00440600204C15002054060020201100201D
:1031FC00586E00087C6E0008A06E0008C46E0008B3
:10320C00D80B0020251500200915002036060020BB
:10321C005A06002058060020DC6E000840060020EC
:10322C003806002024150020786C000830B589B0D1
:10323C002B4C05AB20686168A26807C36D4654F837
:10324C000C0F6168A268E3680FC5237C2B70254BBB
:10325C001978254A1170597851709B789370FF2317
:10326C00D370224B1B88224909882248FEF7E6FCC2
:10327C00214B1B881BB300238DF80C301F4A12788E
:10328C008DF80D208DF80F308DF8102009E003F12A
:10329C002A0208A9194411F8200C16498854013344
:1032AC009BB2102BF3D90DE003F12A0208A91944A3
:1032BC0011F80C0C0F49885401339BB200E0002329
:1032CC000B2BF1D90B48FF23037043708370C37031
:1032DC00037143710C21FEF7FFFC09B030BD00BF38
:1032EC00346A0008540600200C1500205A060020F1
:1032FC005806002020110020400600203606002031
:10330C00014B33F810007047FC050020014B33F8DB
:10331C00100070474C0600201D2070470420704799
:10332C00014B185C704700BFDC0B0020014B53F8BD
:10333C002000704710150020F0B587B005460C46EC
:10334C00164601AFDFF8A4E05EF8200FDEF804109B
:10335C00DEF80820DEF80C300FC7BEF810209EF8FF
:10336C0012303A80BB701C4B19781C4A117059787A
:10337C00517099789170DB78D370194B1B8819496F
:10338C0009881948FEF75AFC002309E003F12A02C8
:10339C0006A9194411F8140C1349885401339BB233
:1033AC00122BF3D9104BFF221A705A709A70DA70E4
:1033BC001A715A7116B1002283F836200A4880F827
:1033CC003250230A80F8373080F838401321FEF74A
:1033DC0083FC07B0F0BD00BF000C00200C150020D2
:1033EC005A0600205806002020110020346A0008DC
:1033FC0038B500F0C3FA2D4B1B68984255D92C4BAD
:10340C001B787BB92B4800F0FBFFFFF70FFF00F098
:10341C00B5FA00F51C501030244B18600022264BD6
:10342C001A7038BD244B1B781C2B17D813B92348A2
:10343C0000F0E6FF224D204C2378002235F81310C3
:10344C00204B1878FFF778FF237835F813101E48B7
:10345C0000F0B2FF23780133237013E01D3B1B4DAA
:10346C00012235F81310174B1878FFF765FF124C33
:10347C0023781D3B35F81310154800F09DFF237879
:10348C000133237000F07AFA00F5C870074B18600E
:10349C00094B1B780B490A78501C08700D49CA540B
:1034AC00202B02D90022044B1A7038BDD80B0020F7
:1034BC0025150020E86E000849150020006F000853
:1034CC00FC05002009150020346F00084C06002074
:1034DC00546F00082815002038B500F02FF93A4831
:1034EC0000F08EFF394800F08BFFFFF7C7F8FFF7AD
:1034FC0013FE642000F048FA354800F081FF00F01C
:10350C003DFA00F5FA54002201210846FFF79CFB16
:10351C0001E0FEF77BFF00F031FA8442F9D800F0AD
:10352C002DFA00F5FA54092200210120FFF78CFB3B
:10353C0001E0FEF76BFF00F021FA8442F9D800F0AD
:10354C001DFA0446FEF762FF002211460120FFF728
:10355C007BFBFFF7C3FD1F4B198861B11E4800F0C0
:10356C002BFF1E4D1B4B1A7800212878FFF76CFBA4
:10357C0000232B700EE008211948FDF783F948B1A0
:10358C00144B1988144800F017FF04220021012065
:10359C00FFF75AFBFFF72CFF124BA3FB04239B0BEB
:1035AC0044F6206202FB1343002BC8D1FDF702FC4A
:1035BC00FDF7E6FC0C4800F023FF08220021012057
:1035CC00FFF742FBBBE700BF746F0008906F000869
:1035DC00A86F0008FA0B0020B86F0008FC0B002045
:1035EC00000801405917B7D1CC6F0008DFF834D070
:1035FC00002103E00C4B5B58435004310B480C4B3F
:10360C0042189A42F6D30B4A02E0002342F8043BDC
:10361C00094B9A42F9D300F0DDFD02F08FFDFFF764
:10362C005BFF70470050002048730008000000202A
:10363C00600B0020600B00205C1A0020FEE70000ED
:10364C0008B5024800F0B8FEFEE700BFD06F0008D6
:10365C0008B5024800F0B0FEFEE700BFDC6F0008C2
:10366C00FEE700BFFEE700BFFEE700BF704700BFEC
:10367C00704700BF704700BF704700BF70B582B085
:10368C0001211020FDF796F910258DF807504FF405
:10369C000053ADF8043001248DF8064001A92448EC
:1036AC00FDF7A2F821460820FDF784F98DF80750A4
:1036BC004023ADF804308DF806401E4E01A930466B
:1036CC00FDF792F88DF807508023ADF804308DF893
:1036DC00064001A93046FDF787F821460420FDF786
:1036EC0069F948238DF80730ADF804508DF8064081
:1036FC00114D01A92846FDF777F828268DF80760AB
:10370C000423ADF804308DF806400DEB0301284678
:10371C00FDF76AF88DF807600823ADF804308DF8D2
:10372C00064001A92846FDF75FF802B070BD00BF46
:10373C0000100140000C01400008014008B5FFF7E3
:10374C009DFF00F0E1F800F0ABFA00F0F5FA00F0A4
:10375C0007F800F073F800F063FA00F0C1FB08BD45
:10376C002DE9F04387B001210420FDF723F9102344
:10377C008DF803304FF48079ADF8009001248DF86A
:10378C000240DFF8B48069464046FDF72DF8182555
:10379C008DF803504FF40053ADF800308DF8024013
:1037AC00234E69463046FDF71FF828238DF8033069
:1037BC004FF48047ADF800708DF8024069463046F2
:1037CC00FDF712F88DF803504FF40043ADF80030BC
:1037DC008DF8024069463046FDF706F849464046EA
:1037EC00FDF75AF821463846FDF7F2F80023ADF8FC
:1037FC0004304FF48272ADF80620ADF80830ADF805
:10380C000A30ADF80C304FF44072ADF80E20ADF824
:10381C001050ADF81230074D01A92846FDF780F97C
:10382C0021462846FDF7A2F907B0BDE8F08300BF9A
:10383C00000C01400038004000080140F0B587B092
:10384C0001210820FDF7B6F810238DF80330012470
:10385C00ADF800408DF80240284F69463846FCF719
:10386C00C3FF18258DF803502023ADF800308DF8D8
:10387C000240234E69463046FCF7B6FF28238DF8EC
:10388C0003304023ADF800308DF8024069463046D5
:10389C00FCF7AAFF8DF803508023ADF800308DF8AB
:1038AC00024069463046FCF79FFF21463846FCF73C
:1038BC00F3FF21464FF48050FDF77CF80023ADF860
:1038CC0004304FF48272ADF80620ADF80830ADF834
:1038DC000A30ADF80C304FF44072ADF80E20ADF854
:1038EC001050ADF81230074D01A92846FDF718F914
:1038FC0021462846FDF73AF907B0F0BD000C01400F
:10390C00000801400030014010B584B00121084688
:10391C00FDF75EF84FF40073ADF80A300024ADF8F3
:10392C00064042F6E063ADF8083004A9052321F8FF
:10393C000C3D4FF08040FDF727F91C238DF800302B
:10394C008DF8014003238DF8023001248DF80340DB
:10395C006846FCF7F1FE224621464FF08040FDF709
:10396C006BF921464FF08040FDF758F94FF080522B
:10397C00014B1A6004B010BD00E100E0014B186867
:10398C00704700BF080C002038B50546FFF7F6FF5E
:10399C000446FFF7F3FF001BA842FAD338BD00BF63
:1039AC0038B50546FFF7EAFF0446FFF7E7FFA3B279
:1039BC00C01AA842F9D338BD08B501214FF0804098
:1039CC00FDF746F9A8B101214FF08040FDF74CF905
:1039DC00084B1A7812F0FF0F0CBF012200221A704C
:1039EC001A7880210448FCF759FF044A1368013304
:1039FC00136008BD040C0020000C0140080C0020D2
:103A0C0008B501214FF0C050FCF7E2FF0120FCF794
:103A1C004BFFFCF7C3FE0120FCF74CFF4120FCF7E9
:103A2C00EBFF0028FAD04FF48070FCF757FF012011
:103A3C00FCF75CFFFDF762F8FDF756F8012108462C
:103A4C00FCF7FCFFFDF750F848F20500FDF73CF8D9
:103A5C00FDF74AF808BD00BFF0B583B007460E4627
:103A6C00002501951FE020212C48FDF77BF900284B
:103A7C00F9D02A48FDF772F9C0B202AB2B4403F817
:103A8C00040C6C1CE4B200F0A3F9631E02AA1344EC
:103A9C0013F8043C303BDBB2092B03D9204800F06F
:103AAC008BFC00E02546B542DDD3042E1DD19DF8DC
:103ABC0007309DF8060030389DF80520303A9DF807
:103ACC000410303900EB80004400234402EB8202E6
:103ADC0002EB820290000344C1EB411201EB820124
:103AEC00C8001844303880B20EE0022E0BD19DF87D
:103AFC0005309DF80420303A02EB82025000184445
:103B0C00303880B200E00020B84204D9394605486C
:103B1C0000F052FCFF2003B0F0BD00BF00380140A4
:103B2C00E86F0008147000082DE9F04182B02F48AE
:103B3C0000F042FC2E4800F03FFC4FF6FF7405E00D
:103B4C00042140F63300FFF787FF04464FF6FF735E
:103B5C009C42F5D0274800F02FFCFF2504E0022101
:103B6C000C20FFF779FFC5B2FF2DF8D0224800F0EA
:103B7C0023FCFF2604E002211F20FFF76DFFC6B2D5
:103B8C00FF2EF8D01D4800F017FCFF2704E002219F
:103B9C001720FFF761FFC7B2FF2FF8D0184800F0CD
:103BAC000BFC4FF0FF0805E002213B20FFF754FF10
:103BBC005FFA80F8B8F1FF0FF6D0124800F0FCFB6A
:103BCC00FF2004E002213B20FFF746FFC0B2FF2894
:103BDC00F8D00190CDF800803B463246294620466D
:103BEC00FDF772F902B0BDE8F08100BF4470000827
:103BFC0088700008A0700008B8700008D070000829
:103C0C00E87000080071000810B5FFF78DFF04463E
:103C1C00FCF76AFF2046FCF749FFFCF765FF10BD77
:103C2C0008B50420FCF7D0FD4AF2A55398420FD0FA
:103C3C00164800F0C1FBFFF7E3FE154800F0BCFB93
:103C4C00FFF7E2FF4AF2A5510420FCF7AFFD19E0A3
:103C5C007B20FCF7D1FE18B10E4800F0ADFB06E05E
:103C6C007A20FCF7C9FE10B10B4800F0A5FB0B48FD
:103C7C0000F0A2FBFCF742FF01210846FCF7DEFE38
:103C8C00FCF732FFFCF7D2FE08BD00BF187100082C
:103C9C0038710008507100087071000890710008AC
:103CAC0030B587B001210820FCF784FE18238DF86D
:103CBC0007304FF48063ADF8043001248DF80640D2
:103CCC001A4D01A92846FCF78FFD04238DF8073007
:103CDC004FF40063ADF804308DF8064001A9284676
:103CEC00FCF782FD21464FF48020FCF771FE4FF467
:103CFC00E13302930023ADF80C30ADF80E30ADF883
:103D0C0010300C22ADF81220ADF81430A5F5444556
:103D1C0021462846FDF710F802A92846FCF7A8FF13
:103D2C008022034B5A6007B030BD00BF000C01402D
:103D3C0000E100E0704700BF30B587B001210420DE
:103D4C00FCF738FE18238DF807304FF40073ADF8EC
:103D5C00043001248DF806401A4D01A92846FCF7C1
:103D6C0043FD04238DF807304FF48063ADF8043025
:103D7C008DF8064001A92846FCF736FD21464FF484
:103D8C008040FCF717FE4FF4E13302930023ADF8AB
:103D9C000C30ADF80E30ADF810300C22ADF812200E
:103DAC00ADF8143005F5405521462846FCF7C4FF04
:103DBC0002A92846FCF75CFF2022034B5A6007B08F
:103DCC0030BD00BF0008014000E100E0704700BFBB
:103DDC0010B5044640210548FCF7C4FF0028F9D073
:103DEC0021460248FCF7B6FF10BD00BF0038014069
:103DFC0010B404460020024608E000EB80004100AD
:103E0C000B449BB2303B98B2013292B2A35C2C2B88
:103E1C00F3D110BC704700BF2DE9F84306460D46A0
:103E2C00FFF7ACFD00F59C540834CDB14FF0000900
:103E3C0045E0FFF7A3FD844246D320212548FCF73B
:103E4C0091FF0028F5D02348FCF788FF224B5855EA
:103E5C00FFF794FD00F59C5408340135EDB200E0F9
:103E6C000025B542E9D30120BDE8F883FFF786FDB4
:103E7C0084422CD320211748FCF774FF0028F5D07E
:103E8C001448FCF76BFFC5B207F101085FFA88F81C
:103E9C00114BDD55FFF772FD00F59C540834474675
:103EAC0001E000252F462C2DE4D10B48FFF7A0FF95
:103EBC000A4B23F8190009F101095FFA89F9B14598
:103ECC00EFD30120BDE8F8830020BDE8F883002083
:103EDC00BDE8F8830038014068150020501500201B
:103EEC00F0B58BB0564800F08BFA0024554B1C7083
:103EFC0076E0062C74D8DFE804F0041C2E3A465207
:103F0C00640000210420FFF787FF002800F0968052
:103F1C004D4DE878FFF75CFF2B78432B60D16B7825
:103F2C00462B5DD1AB78472B5AD1EB783A2B57D136
:103F3C0055E001210420FFF76FFF00287ED0434A93
:103F4C001188434B19705188597091889970D28897
:103F5C00DA70022444E001210846FFF75DFF0028D7
:103F6C006CD03A4B1A883B4B1A80032438E0012161
:103F7C000846FFF751FF002860D0344B1A88364BA7
:103F8C001A8004242CE001210846FFF745FF002885
:103F9C0054D02E4B1A88314B1A80052420E0012175
:103FAC000420FFF739FF002848D0284A11882C4BF1
:103FBC0019705188597091889970D288DA700624DA
:103FCC000EE001210846FFF727FF002836D01F4BD3
:103FDC001A88244B1A8001221A4B1A7000E0012413
:103FEC00184B1B78002B84D01948017842788378C1
:103FFC00C4781B48057846788778C078DFF864E089
:10400C00BEF800E0CDF820E0DFF850E0BEF800E0AC
:10401C00CDF81CE0DFF840E0BEF800E0CDF818E089
:10402C00DFF830E0BEF800E0CDF814E00490039720
:10403C000296019500940C4800F0BEF90BB0F0BD4F
:10404C00C071000874150020681500205015002060
:10405C00100C002076150020781500206415002027
:10406C000C0C0020140C0020E8710008074B1B7886
:10407C004BB1074B1B880380064B1B880B80064BF0
:10408C001B88138001231846704700BF741500204D
:10409C00761500207815002064150020084B1B783D
:1040AC0063B1084B1A7802705A7842709A78827011
:1040BC00DB78C370044B1B880B80012318467047B8
:1040CC00741500200C0C0020140C00200346054A2B
:1040DC00126812B90449034A1160024A1068034479
:1040EC0013607047180C00205C1A002070B50E4647
:1040FC001546002403E0305DFFF76AFE0134AC4244
:10410C00F9DB012070BD00BF82B000230193009346
:10411C002C4A136843F4803313602A4B1B6803F456
:10412C0000330093019B01330193009B1BB9019B4E
:10413C00B3F5005FF1D1234B1B6813F4003F02D0A1
:10414C000123009301E000230093009B012B36D147
:10415C001D4B1A6842F010021A601A6822F0030212
:10416C001A601A6842F002021A60A3F580535A686A
:10417C005A605A685A605A6842F480625A605A68A7
:10418C0022F47C125A605A6842F4E8125A601A6897
:10419C0042F080721A600B4B1B6813F0007FFAD050
:1041AC00084B5A6822F003025A605A6842F0020225
:1041BC005A60044B5B6803F00C03082BF9D102B076
:1041CC00704700BF001002400020024008B5FFF706
:1041DC009BFF08BD08B5104B1A6842F001021A602B
:1041EC0059680E4A0A405A601A6822F0847222F406
:1041FC0080321A601A6822F480221A605A6822F4FB
:10420C00FE025A604FF41F029A60FFF7DFFF4FF077
:10421C000062034B9A6008BD001002400000FFF8DA
:10422C0000ED00E070B4012301E002FB03F3B1FBED
:10423C00F3F49442F9D212E0B1FBF3F403FB141142
:10424C0093FBF2F3092C05DD05686E1C0660373410
:10425C002C7004E005686E1C066030342C70002B4A
:10426C00EAD170BC704700BF70B582B001900C46AB
:10427C001546064655E0252B4DD16378642B19D095
:10428C0006D8582B39D0632B0DD0252B41D13BE0D0
:10429C00732B1ED002D8692B0CD03AE0752B25D08D
:1042AC00782B2AD035E0019A531C01932B680435E6
:1042BC0013702EE029680435002905DA4942019B68
:1042CC005A1C01922D221A700A2201A8FFF7AAFF8C
:1042DC001FE02B68043505E0019A511C01911978F7
:1042EC00117001331A78002AF6D112E00A222968DB
:1042FC00043501A8FFF796FF0BE01022296804355E
:10430C0001A8FFF78FFF04E0019B5A1C01922522A4
:10431C001A70023405E0019B5A1C019222781A7023
:10432C0001342378002BA6D10022019B1A7001982E
:10433C00801B02B070BD00BF10B40346002035E0F6
:10434C00252A31D15C1C5B78583B202B29D8DFE81F
:10435C0003F024282828282828282828281115285C
:10436C0028282815282828282828282828192815F6
:10437C002828240004310130234616E00B30043188
:10438C00234612E00B68043101E0013013465A1C3D
:10439C001B78002BF9D1234607E008300431234663
:1043AC0003E00130234600E0013001331A78002A83
:1043BC00C6D110BC704700BF0FB4B0B582B000AF0F
:1043CC0007F1180454F8045B7C6021462846FFF77B
:1043DC00B3FF073020F00700ADEB000D7C602246E8
:1043EC0029466846FFF740FF024669460120FFF761
:1043FC007DFE0837BD46BDE8B04004B0704700BF35
:10440C0038B50546FBF79CFE0446024629460120BA
:10441C00FFF76CFE0546012206491046FFF766FEC3
:10442C0028440134A04201D1002038BD4FF0FF30A8
:10443C0038BD00BF806B00080C4B98810B4B1B895F
:10444C0003F002039BB2002BF8D0084B1B8913F02E
:10445C00010FFAD0054B1B8903F080039BB2002B94
:10446C00F8D1024B9889C0B2704700BF00380040A9
:10447C00F8B506460C4615461F464FF480710C489D
:10448C00FCF70AFA04F01F003043FFF7D5FF0024B5
:10449C0006E06E1C0020FFF7CFFF28700134354674
:1044AC00BC42F6DB4FF480710148FCF7F3F9F8BD20
:1044BC0000080140F8B506460C4615461F464FF459
:1044CC0080710C48FCF7E8F904F01F003043FFF74B
:1044DC00B3FF002405E06E1C2878FFF7ADFF013414
:1044EC003546BC42F7DB4FF480710248FCF7D2F939
:1044FC00F8BD00BF0008014038B505460C464FF426
:10450C0080710648FCF7C8F92846FFF795FF24B9D7
:10451C004FF480710148FCF7BDF938BD000801402B
:10452C0008B500F0E0000F4B1B78984219D0E0283A
:10453C0017D00C4B18704009032812D8DFE800F094
:10454C0002060A0EC020FFF7D7FF08BDC220FFF7F6
:10455C00D3FF08BDC420FFF7CFFF08BDC620FFF76F
:10456C00CBFF08BD1E0C002010B582B00446012103
:10457C00FFF7D6FF01230DF1060204F01F01002006
:10458C00FFF776FF9DF8060002B010BD10B582B0A3
:10459C0004460121FFF7C4FF02230DF1060204F0CB
:1045AC001F010020FFF764FFBDF8060002B010BD2C
:1045BC0030B583B0054602AC04F8011D0121FFF7AC
:1045CC00AFFF0123224629468020FFF773FF03B07B
:1045DC0030BD00BF70B582B004460E460121FFF716
:1045EC009FFF02AD05F8016D01232A4604F01F015F
:1045FC004020FFF75FFF360A8DF80760611C01232E
:10460C002A4601F01F014020FFF754FF02B070BD95
:10461C0030B583B0054602AC04F8011D0121FFF74B
:10462C007FFF0123224629464020FFF743FF03B0BA
:10463C0030BD00BF70B506460C4615464FF4807170
:10464C000948FCF729F93046FFF7F6FEE0B2FFF710
:10465C00F3FE200AFFF7F0FE25B94FF480710248F3
:10466C00FCF718F970BD00BF0008014038B50446CE
:10467C000D464FF480710B48FCF70EF92C20FFF718
:10468C00DBFE06E0013CA4B20020FFF7D5FE05F8E6
:10469C00010B002CF6D14FF480710248FCF7FAF8AC
:1046AC0038BD00BF0008014070B505460E464FF4FA
:1046BC0080710B48FCF7F0F82A20FFF7BDFE04E0F0
:1046CC0016F8010BFFF7B8FE25466B1E9CB2002DA9
:1046DC00F6D14FF480710248FCF7DCF870BD00BFD6
:1046EC000008014010B5044641F234211620FFF7B2
:1046FC0071FF04E041F234211620FFF76BFF162006
:10470C00FFF744FF41F234239842F3D1FB20FFF72B
:10471C002BFF10F4805FF9D10021CA20FFF7ECFECB
:10472C001920FFF73DF91620FFF730FF002842D182
:10473C0040F20910FFF734F94FF49A511E4B1980CF
:10474C000420FFF747FF45F6FF710620FFF742FFF5
:10475C0045F6FF711620FFF73DFF45F6FF71182057
:10476C00FFF738FF59213420FFF752FFF021422088
:10477C00FFF71EFF40F2DC514A20FFF72BFF217898
:10478C006420FFF745FF61786520FFF741FFA178B2
:10479C006220FFF73DFFE1786320FFF739FF2179B5
:1047AC006020FFF735FF61796120FFF731FF0021B1
:1047BC00E820FFF7A1FE10BD1C0C002070B582B0E4
:1047CC0006460D46FC20FFF7CFFE10F0400F41D0FF
:1047DC00234C002221886420FFF72CFF694602201D
:1047EC00FFF744FF9DF801209DF8003043EA0223B7
:1047FC00238069460620FFF739FF9DF801409DF89C
:10480C00003043EA0424043C9DF90230002B00DB09
:10481C000024B44200D900242946A0B2FFF726FF99
:10482C000F4B1B889D1EADB2B3F59A5F01D145F6B7
:10483C00FC750121FF20FFF7EBFEE9B20620FFF724
:10484C00E7FE290A0720FFF7E3FE701E844203D916
:10485C00002002E0002000E0204602B070BD00BF46
:10486C001C0C002038B504460D46002230216C206B
:10487C00FFF7E0FE30210020FFF7CAFE00210120E7
:10488C00FFF7C6FEE1B20220FFF7C2FEC4F3072118
:10489C000320FFF7BDFE2946A0B2FFF705FF032159
:1048AC00FE20FFF7B5FE38BD08B5FFF767F808BD69
:1048BC00352303700123437081700330704700BFB0
:1048CC0003463622027004224270034A1068C3F871
:1048DC000200981D704700BF3C0C0020372303706A
:1048EC000323437001228270C370062303710530C9
:1048FC00704700BFFF23037001307047034632221C
:10490C00027004224270034A1068C3F80200981D1A
:10491C00704700BF440C002010B40346014400242F
:10492C002EE01A78332A24D006D8032A10D0062A6F
:10493C0013D0012A21D106E0362A15D0FF2A21D026
:10494C00352A1AD10EE0D3F80200104A906214E016
:10495C00D3F802000D4A10630FE0D3F802000B4AA3
:10496C00D0620AE09C7808E0D3F80200074AD061D4
:10497C0003E0D3F80200054A10625A78023213445D
:10498C008B42CED3204610BC704700BF200C0020B9
:10499C002DE9F8430446012303704370284B9A69B0
:1049AC0082700027C770274A1068606027814FF01B
:1049BC008009A4F80A90244A1268E26027616761B2
:1049CC00A7619D692A46596904F11C0001F0EBFBB3
:1049DC0005F118002044C5F110023946043001F0ED
:1049EC00EDFB04F12C0840223946404601F0E6FB71
:1049FC00164D2E460FCEE06221636263A3630FCE89
:104A0C00E06321646264A3644A46394604F16C0095
:104A1C0001F0D4FB0FCDC4F8F010C4F8F420C4F8A6
:104A2C00F8300FCDC4F8FC00C4F80011C4F8042110
:104A3C00C4F80831064B1868C4F8EC00BDE8F883DC
:104A4C00200C0020647200082816002068720008F0
:104A5C008872000838B50B4C25682846FFF798FF7C
:104A6C00032105F1F000FFF723FF1930FFF728FFB2
:104A7C00FFF744FFFFF73EFF2368C11A184601F009
:104A8C0031F938BD9015002038B50E4D2C682046F4
:104A9C00FFF77EFF012104F1F000FFF709FF0A4B3D
:104AAC005B691A68C4F8F6209B88A4F8FA301930B0
:104ABC00FFF714FFFFF71EFF2B68C11A184601F011
:104ACC0011F938BD90150020200C002010B5114BA9
:104ADC001C682378022B17D104220F49A01801F06F
:104AEC0053FB98B90D4B9A69596904F11C0001F0FC
:104AFC004BFB68B92069094B5862094B198804F1C2
:104B0C00F000FFF709FF10BD002010BD002010BD04
:104B1C00002010BD9015002064720008200C0020AD
:104B2C007C150020F0B583B04A4B01221A704FF46B
:104B3C007A721A8201E0FDF769FC464B1B78032B55
:104B4C00F9D14548FFF75CFC424CA08C00F092F97F
:104B5C000546A08C00F08EF90646E08C00F08AF930
:104B6C000746E08C00F086F9C0B20090C7F30F2323
:104B7C00F2B2C5F30F213948FFF71EFC384BA28C5B
:104B8C001A80E28C5A80208D00F074F90546208D35
:104B9C0000F070F90646608D00F06CF90746608DE8
:104BAC0000F068F9C0B20090C7F30F23F2B2C5F35E
:104BBC000F212C48FFF700FC2B4B228D1A80628DA5
:104BCC005A80A08D00F056F90546A08D00F052F9E0
:104BDC000646E08D00F04EF90746E08D00F04AF9EC
:104BEC00C0B20090C7F30F23F2B2C5F30F211F48D8
:104BFC00FFF7E2FB208E00F03DF90546208E00F019
:104C0C0039F90646608E00F035F90746608E00F0E3
:104C1C0031F9C0B20090C7F30F23F2B2C5F30F21E4
:104C2C001348FFF7C9FB134B228E1A80628E5A80F1
:104C3C00208C00F01FF90504608C00F01BF9411961
:104C4C000D48FFF7B9FB10220C4B1A70012003B072
:104C5C00F0BD00BF200C00208C720008A47200086C
:104C6C0028160020C072000824160020DC720008F0
:104C7C00F872000820160020187300088815002010
:104C8C0010B5194B1B7813F0020F0ED0FFF71EFF57
:104C9C0002280AD1154C02232370FFF7DBFE218A70
:104CAC0004F1080001F042FA17E00F4B1B7813F0E7
:104CBC00020F07D0FFF70AFF052803D103220B4B85
:104CCC001A700AE0094B1B78022B06D0FFF7DCFEAA
:104CDC000648018A083001F029FA4FF47A72034B26
:104CEC001A82002010BD00BF88150020200C002067
:104CFC0010B582B00B4C6061A161002323704FF69C
:104D0C00FF73ADF80430ADF806304FF4864101A8BE
:104D1C0000F094FF606010B14FF48843838002B0C0
:104D2C0010BD00BF200C002008B5FFF7A9FF08BD7F
:104D3C0010B4013A0A440BE00C784B7803EB0423D3
:104D4C009BB2184480B2834201D9013080B2023147
:104D5C009142F1D307D10B781B02184480B28342E5
:104D6C0001D9013080B210BC704700BF70B4C57857
:104D7C000D44EDB2134CE57083780E0A3344DBB26C
:104D8C00A37042786270007820709CB2A64206D95B
:104D9C000132D2B20B4C62700AB901302070C9B228
:104DAC008D420CDA0133DBB2064A93703BB953786F
:104DBC000133DBB2537013B913780133137070BC29
:104DCC00704700BF8415002010B5094C23680146BC
:104DDC0003F10800FFF7CAFF2368064A117819721D
:104DEC005178597291789972D278DA7210BD00BFED
:104DFC0094150020841500200022194B1A7006E02F
:104E0C000021184A22F813100133154A1370144B61
:104E1C001B78032BF4D90022114B1A7007E0124AAD
:104E2C0002EB43120021517601330D4A13700C4BE7
:104E3C001B78032BF3D94FF480620C4B1A800022A1
:104E4C00074B1A7007E00A4A02EB0312002191800B
:104E5C000133034A1370024B1B78032BF3D97047B1
:104E6C005E0C002018160020981500205C0C002009
:104E7C00181A0020030A43EA002080B2704700BFD2
:104E8C0008B5142205490020FFF752FF10B1FFF7B7
:104E9C00F1FF08BD4FF6FF7008BD00BF3A160020A9
:104EAC0038B50D4D2C7C6B7C03EB0424143CA4B264
:104EBC002044082205F11A0180B2FFF739FF22467F
:104ECC0005F12201FFF734FF10B1FFF7D3FF38BD16
:104EDC004FF6FF7038BD00BF2C16002008B5062019
:104EEC00FFF7DEFF08BD00BF08B51120FFF7D8FFA4
:104EFC0008BD00BF70B5A44B1C68042800F0978156
:104F0C00A24BA34A1360A34A1360032810D1637EFB
:104F1C0003F00F03032B40F00A86238A002B40F08A
:104F2C00068608229C4B1A70FDF712FA00F0C2BCE0
:104F3C0002287BD1994AD3780133DBB2D37063B9A1
:104F4C0093780133DBB293703BB953780133DBB206
:104F5C00537013B91378013313700023904A1380E4
:104F6C00904A1380637E072B01D0052B0AD1A37EB8
:104F7C000133DBB2A3761E2B40F0D9850023637678
:104F8C0000F0D5BD002B00F0D285228A002A41D03A
:104F9C00A27E511EA176002A40F0C985E27E082A25
:104FAC0005D0591EC9B201290ED8052A0CD10023EF
:104FBC0063768022784B1A70FDF7CAF914227A4B6B
:104FCC0083F82F2000F044BD042A03D8032191401C
:104FDC00C9B200E03021A1760132E27603F00F0372
:104FEC00013B072B00F2A385DFE813F0A6020800B3
:104FFC000D002004A1052004A105200400226A4B09
:10500C0083F82F209CE20422634B1A70FDF7A0F961
:10501C0000F085BC03F00F03032B40F088850822B9
:10502C005D4B1A70FDF794F900F044BC052817D1BC
:10503C005E4B1B689B88002B00F079850023524A3D
:10504C0013605B4A52490A6052490A60554A138000
:10505C00534A13800822504B1A70FDF7C7F9E6E04B
:10506C00514B9B7B452B40F062854F4A157C537C02
:10507C0003EB05214A4A1288914200F358858DB200
:10508C00474B1D80484B1B7D13F03F0F40F04F8565
:10509C00454B5B7D002B40F04A85464B1C880CB978
:1050AC005B885BB3404BDB7D112B1BD13E4BDB8B09
:1050BC004FF6FF72934205D13B4A118C4FF6FF72AB
:1050CC0091424DD03C4A128864EA0202934209D1C3
:1050DC00354B1A8C374B5B883749498863EA010397
:1050EC009A423DD0304BDB8B9C4240F020852E4BBE
:1050FC001A8C304B5B889A4240F01985FFF7C0FE42
:10510C004FF6FF73984240F01285274BDB7D062B40
:10511C0000F0CD80112B23D0012B40F00885224BC1
:10512C0093F82230082B40F002851F4B002283F8A5
:10513C0022209B8C4FF6F672934203D909331A4AFC
:10514C00938402E00833184A9384174B5A8BDA8302
:10515C009A8B1A845C83174A52889A8300F0E3BCBA
:10516C001C3D0F4B1D80124B094A136033F8023C57
:10517C0033B1FFF7B9FE4FF6FF73984240F0D78476
:10518C000E4A0A4B1A603EE094150020621600206D
:10519C00901500208015002088150020580C002048
:1051AC007C150020161A00202C1600208C150020CF
:1051BC00561600202816002024160020181A00204D
:1051CC009A88EAB18B49898C8A4219D1DA881AB14A
:1051DC008849498C8A4213D11A880AB95988C9B1AD
:1051EC004FF6FF718A4202D15888884212D0814909
:1051FC00498B8A4204D17F4A918B5A88914209D0BB
:10520C0010337D4A13607C4B1B687C4A9342D7D386
:10521C0000F08DBC00237A4A13600221794A117088
:10522C0079497A4A11607A4A1380FDF7DFF8784B96
:10523C001B88002B00F07B8403F11C0292B2754991
:10524C000A806C4C110A217462746B4A1268117AD0
:10525C00A1751121E17508339BB2190A41EA0323A8
:10526C00E384002384F8283084F8293093886384FD
:10527C00D388A384684B198861835B88A3831388C4
:10528C00E3835388238404F13602644B1A60FFF7DE
:10529C002BFEC04380B22085002840F02F844FF0B5
:1052AC00FF3284F8282084F8292000F027BCFFF76F
:1052BC0015FE4FF6FF73984240F03984584C17E0B6
:1052CC00617EA1B14B4B9A8CA3889A420FD1494B6A
:1052DC005A8CE3889A420AD1464B5A8B23889A42BD
:1052EC0005D1444B9A8B63889A4200F04381203459
:1052FC004C4B9C42E4D93F4B93F82F3003F03F03C7
:10530C00022B14D13B4B9B8C99B2474A1380002241
:10531C00464B1A7007E0464A32F8132091425BD094
:10532C000133424A1370414B1B78032BF3D9314B99
:10533C0093F82F3013F0040F40F0F9832D4B142207
:10534C0083F82F202821334A1180502283F82E20F5
:10535C0093F8290093F82D2083F8292093F828102E
:10536C0093F82C2083F8282083F82C1093F827200E
:10537C0093F82B4083F8274083F82B2093F8264092
:10538C002A4D2C7093F82A5083F8265083F82A4023
:10539C000130C0B283F82D0068B94B1CDBB2154943
:1053AC0081F82C303BB9531CDBB281F82B3013B98C
:1053BC00013481F82A400F4B5A8C1B490A80998C76
:1053CC0059849A845A8BDA839A8B1A84124A1188DC
:1053DC00598352889A837CE30024144B1C7039E067
:1053EC000F4A02EB4312527E22BB0D4C04EB4314CA
:1053FC0034E000BF2C1600208C150020581A002019
:10540C0094150020881500205616002080150020C9
:10541C00161A00207C15002028160020901500205C
:10542C0098150020F8150020540C00205E0C00206C
:10543C0018160020072A0AD134B1B14A02EB4312E4
:10544C00917EA27E914202D9AD4C04EB4314013300
:10545C00AC4A1370AB4B1B78032BC1D9002C00F05A
:10546C006683A94B1C600323A37623760023A375C4
:10547C000422E275E376A54DAB8CA3806B8CE380A4
:10548C006B8B2380AB8B638001206076A04B1A78EA
:10549C0022735A7862739A78A273DB78E373208252
:1054AC0095F82930E37295F82830A37295F82730D7
:1054BC00637295F826302372FFF786FC95F82E0060
:1054CC0000F0F003502B37DD00228E4B1A702BE0CE
:1054DC0003F136028D4DAA5C72B3012A03D101335C
:1054EC00884A137020E0022A16D103F13702874D47
:1054FC00AA5C042A10D101F13803EA5C39316B5CE7
:10550C0043EA0222834B1A8040F25233934228BF63
:10551C0013466382A3820FE003F137027B498A5C56
:10552C0052B11344774A1370764B1B781946020913
:10553C00053AB3EB820FCBDB1022744B83F82F2090
:10554C00724B93F82F2042F0020283F82F20022294
:10555C0083F83620042283F83720032283F838207E
:10556C00522283F839202C216B4A1180602283F857
:10557C002E2074E2644B1C600022684B1A70634B43
:10558C0093F82F2012F0040F07D00023637620220B
:10559C00624B1A70FCF7DCFEC9E25C4B93F82E30C0
:1055AC001B099B0057480370EB1A143B9BB25A48DB
:1055BC00038001F00F01022903D102F03F011229EF
:1055CC000FD013B912F0030F0BD0504BD98C238989
:1055DC00994240F039824D4B198D6389994240F0C4
:1055EC00338212F0100F47D0218A002944D004F1E5
:1055FC000C00FFF7BBFB454B93F82A30484A107858
:10560C00834239D1414B93F82B3051788B4233D1B3
:10561C003E4B93F82C30927893422DD13B4B93F820
:10562C002D503F4BDB789D4226D120736173A273C2
:10563C00E373E37ECBB9237EA27E9A1AD2B2A17D0C
:10564C00A2EBD102D2B253B21144C9B2A175002B54
:10565C0001DA524253B2E07DA3EB9002D2B2024483
:10566C00D3B2E37503EBD103237601222B4B1A70D3
:10567C00237EA37600232382617E01F00F03013B7E
:10568C00072B00F25482DFE813F008002300AB0074
:10569C007701B901D501DF016901204B1B7813F0AB
:1056AC00010F00F044820323637640221B4B1A70D7
:1056BC0000232382184B188820B14222174B1A70F2
:1056CC00FFF782FB0022174B1A80FCF741FEF1E03A
:1056DC00124B1B7813F0010F78D00C4B93F82F3032
:1056EC0003F03F03122B71D1084B93F82E0000F0FE
:1056FC00F003502B4CDD0022024B1A7040E000BF2F
:10570C00981500205E0C0020941500202C1600200B
:10571C00580C0020540C00207C150020881500200B
:10572C0084150020161A002003F13602A34DAA5C42
:10573C0072B3012A03D10133A14A137020E0022A6B
:10574C0016D103F137029D4DAA5C042A10D101F148
:10575C003803EA5C39316B5C43EA0222994B1A80BC
:10576C0040F25233934228BF13466382A3820FE068
:10577C0003F1370291498A5C52B11344904A137079
:10578C008F4B1B7819460209053AB3EB820FCBDB22
:10579C0003236376894B93F82620227293F82720F3
:1057AC00627293F82820A27293F82930E3720120D8
:1057BC00FFF70AFB4222844B1A7000232382834A90
:1057CC001380834A1380FCF7C3FD73E020227E4BC9
:1057DC001A70FCF7BDFD7F4B1B6800225A76A6E5BC
:1057EC00764B93F82F3013F0010F24D011F0100FDB
:1057FC0021D1238A002B40F09A81744D28880130E6
:10580C0080B2FFF7E1FA704A137843F0100313707B
:10581C002A881AB143F002036B4A1370FCF798FD07
:10582C0001232382082363760023E3761122634B42
:10583C0083F82F200CE113F0200F10D05F4890F864
:10584C0034301A0290F8353043EA0200624D2E686B
:10585C00304428605D4813430288D31A03805B4BA5
:10586C00188848B111F0100F06D1574A137843F03D
:10587C0002031370FFF7A8FA504A92F8301092F80E
:10588C00313003EB01239BB24E4A1380A28A934220
:10589C0000D80BB94B4B1A804A4B1B8863824A4B7E
:1058AC001B7813F0030F00F042810022484B1A8042
:1058BC00FCF74EFD444B1B7813F0200F08D000234F
:1058CC00434A1380637614223C4B83F82F20BFE0AD
:1058DC0013F0100F0CD000233D4A138001222282BA
:1058EC0004226276E3761122344B83F82F20AFE04A
:1058FC00374A12888AB113F0010F01D0002323829A
:10590C00238A43B9638A9A4201D9314A1380304BB6
:10591C001B88238201E02E4A13800023E3762F4B51
:10592C001A682D4B1A602A4B1B884BB1238A3BB14A
:10593C002833264A13801822204B83F82F208AE024
:10594C00214B1B7813F0020F00F0F18028221F4B23
:10595C001A801022194B83F82F207CE01A4B1B78ED
:10596C0013F0010F00F0E380002363761022164B36
:10597C001A70FCF7EDFCDAE0144B188808B1FFF74D
:10598C0023FA0E4B93F82F3013F0010F28D00E4B47
:10599C001B7813F0010F05D0072363760023A37641
:1059AC00238201E0062363760120FFF70DFA102213
:1059BC00054B1A70FCF7CCFC46E000BF2C160020FF
:1059CC005E0C0020540C0020881500207C15002053
:1059DC00161A002094150020901500208015002028
:1059EC00564B1B7813F0010F04D00523637600236C
:1059FC0023829CE0524B1B8833BB98E0504B188899
:105A0C0008B1FFF7E1F94F4B93F82F3013F0010F6A
:105A1C000CD0072363760023A3760120FFF7D4F97B
:105A2C001022464B1A70FCF793FC0DE0444B1B887C
:105A3C0053B97CE0414B1B7813F0010F77D007234F
:105A4C0063760023A37672E010223E4B83F82F205E
:105A5C0028223B4B1A8050223A4B83F82E20227A74
:105A6C00384B83F82A20627A83F82B20A27A83F8A9
:105A7C002C20E27A83F82D20227B83F82620627B6F
:105A8C0083F82720A27B83F82820E27B83F8292047
:105A9C000622DA75A2885A84E2889A842A4A1188E6
:105AAC00598352889A832288DA8362881A84637EA7
:105ABC0013F0100F06D0234B002283F8312083F80B
:105ACC00302006E01F4B032283F83020B62283F8E7
